{
  "contractName": "Casino",
  "abi": [
    {
      "inputs": [
        {
          "internalType": "uint256",
          "name": "_maxBetting",
          "type": "uint256"
        },
        {
          "internalType": "uint256",
          "name": "_maximumPlayer",
          "type": "uint256"
        }
      ],
      "stateMutability": "payable",
      "type": "constructor",
      "payable": true
    },
    {
      "anonymous": false,
      "inputs": [
        {
          "indexed": true,
          "internalType": "uint256",
          "name": "campaignID",
          "type": "uint256"
        },
        {
          "indexed": true,
          "internalType": "address",
          "name": "from",
          "type": "address"
        },
        {
          "indexed": true,
          "internalType": "uint32",
          "name": "blockNum",
          "type": "uint32"
        },
        {
          "indexed": false,
          "internalType": "uint96",
          "name": "deposit",
          "type": "uint96"
        },
        {
          "indexed": false,
          "internalType": "uint16",
          "name": "commitBalkline",
          "type": "uint16"
        },
        {
          "indexed": false,
          "internalType": "uint16",
          "name": "commitDeadline",
          "type": "uint16"
        },
        {
          "indexed": false,
          "internalType": "uint256",
          "name": "bountyPot",
          "type": "uint256"
        }
      ],
      "name": "LogCampaignAdded",
      "type": "event"
    },
    {
      "anonymous": false,
      "inputs": [
        {
          "indexed": true,
          "internalType": "uint256",
          "name": "CampaignId",
          "type": "uint256"
        },
        {
          "indexed": true,
          "internalType": "address",
          "name": "from",
          "type": "address"
        },
        {
          "indexed": false,
          "internalType": "bytes32",
          "name": "commitment",
          "type": "bytes32"
        }
      ],
      "name": "LogCommit",
      "type": "event"
    },
    {
      "anonymous": false,
      "inputs": [
        {
          "indexed": true,
          "internalType": "uint256",
          "name": "CampaignId",
          "type": "uint256"
        },
        {
          "indexed": true,
          "internalType": "address",
          "name": "from",
          "type": "address"
        },
        {
          "indexed": false,
          "internalType": "uint256",
          "name": "bountyPot",
          "type": "uint256"
        }
      ],
      "name": "LogFollow",
      "type": "event"
    },
    {
      "anonymous": false,
      "inputs": [
        {
          "indexed": true,
          "internalType": "uint256",
          "name": "CampaignId",
          "type": "uint256"
        },
        {
          "indexed": true,
          "internalType": "address",
          "name": "from",
          "type": "address"
        },
        {
          "indexed": false,
          "internalType": "uint256",
          "name": "secret",
          "type": "uint256"
        }
      ],
      "name": "LogReveal",
      "type": "event"
    },
    {
      "inputs": [
        {
          "internalType": "uint256",
          "name": "",
          "type": "uint256"
        }
      ],
      "name": "campaigns",
      "outputs": [
        {
          "internalType": "uint32",
          "name": "blockNum",
          "type": "uint32"
        },
        {
          "internalType": "uint96",
          "name": "deposit",
          "type": "uint96"
        },
        {
          "internalType": "uint16",
          "name": "commitBalkline",
          "type": "uint16"
        },
        {
          "internalType": "uint16",
          "name": "commitDeadline",
          "type": "uint16"
        },
        {
          "internalType": "uint256",
          "name": "random",
          "type": "uint256"
        },
        {
          "internalType": "bool",
          "name": "settled",
          "type": "bool"
        },
        {
          "internalType": "uint256",
          "name": "bountyPot",
          "type": "uint256"
        },
        {
          "internalType": "uint32",
          "name": "commitNum",
          "type": "uint32"
        },
        {
          "internalType": "uint32",
          "name": "revealsNum",
          "type": "uint32"
        }
      ],
      "stateMutability": "view",
      "type": "function",
      "constant": true
    },
    {
      "inputs": [],
      "name": "maxBetting",
      "outputs": [
        {
          "internalType": "uint256",
          "name": "",
          "type": "uint256"
        }
      ],
      "stateMutability": "view",
      "type": "function",
      "constant": true
    },
    {
      "inputs": [],
      "name": "maximumPlayer",
      "outputs": [
        {
          "internalType": "uint256",
          "name": "",
          "type": "uint256"
        }
      ],
      "stateMutability": "view",
      "type": "function",
      "constant": true
    },
    {
      "inputs": [],
      "name": "numCampaigns",
      "outputs": [
        {
          "internalType": "uint256",
          "name": "",
          "type": "uint256"
        }
      ],
      "stateMutability": "view",
      "type": "function",
      "constant": true
    },
    {
      "inputs": [
        {
          "internalType": "uint96",
          "name": "_deposit",
          "type": "uint96"
        }
      ],
      "name": "newCampaignAuto",
      "outputs": [
        {
          "internalType": "uint256",
          "name": "_campaignID",
          "type": "uint256"
        }
      ],
      "stateMutability": "payable",
      "type": "function",
      "payable": true
    },
    {
      "inputs": [
        {
          "internalType": "uint256",
          "name": "_campaignID",
          "type": "uint256"
        }
      ],
      "name": "follow",
      "outputs": [
        {
          "internalType": "bool",
          "name": "",
          "type": "bool"
        }
      ],
      "stateMutability": "payable",
      "type": "function",
      "payable": true
    },
    {
      "inputs": [
        {
          "internalType": "uint256",
          "name": "_campaignID",
          "type": "uint256"
        },
        {
          "internalType": "bytes32",
          "name": "_hs",
          "type": "bytes32"
        }
      ],
      "name": "commit",
      "outputs": [],
      "stateMutability": "payable",
      "type": "function",
      "payable": true
    },
    {
      "inputs": [
        {
          "internalType": "uint256",
          "name": "_campaignID",
          "type": "uint256"
        }
      ],
      "name": "getCommitmentNumber",
      "outputs": [
        {
          "internalType": "uint256[4]",
          "name": "",
          "type": "uint256[4]"
        }
      ],
      "stateMutability": "view",
      "type": "function",
      "constant": true
    },
    {
      "inputs": [
        {
          "internalType": "uint256",
          "name": "_campaignID",
          "type": "uint256"
        }
      ],
      "name": "getCommitment",
      "outputs": [
        {
          "internalType": "bytes32",
          "name": "",
          "type": "bytes32"
        }
      ],
      "stateMutability": "view",
      "type": "function",
      "constant": true
    },
    {
      "inputs": [
        {
          "internalType": "uint256",
          "name": "_s",
          "type": "uint256"
        }
      ],
      "name": "shaCommit",
      "outputs": [
        {
          "internalType": "bytes32",
          "name": "",
          "type": "bytes32"
        }
      ],
      "stateMutability": "pure",
      "type": "function",
      "constant": true
    },
    {
      "inputs": [
        {
          "internalType": "uint256",
          "name": "_campaignID",
          "type": "uint256"
        },
        {
          "internalType": "uint256",
          "name": "_s",
          "type": "uint256"
        }
      ],
      "name": "reveal",
      "outputs": [],
      "stateMutability": "nonpayable",
      "type": "function"
    },
    {
      "inputs": [
        {
          "internalType": "uint256",
          "name": "_campaignID",
          "type": "uint256"
        }
      ],
      "name": "getRandom",
      "outputs": [
        {
          "internalType": "uint256",
          "name": "",
          "type": "uint256"
        }
      ],
      "stateMutability": "nonpayable",
      "type": "function"
    },
    {
      "inputs": [
        {
          "internalType": "uint256",
          "name": "_campaignID",
          "type": "uint256"
        }
      ],
      "name": "getMyBounty",
      "outputs": [],
      "stateMutability": "nonpayable",
      "type": "function"
    },
    {
      "inputs": [],
      "name": "getThisBalance",
      "outputs": [
        {
          "internalType": "uint256",
          "name": "",
          "type": "uint256"
        }
      ],
      "stateMutability": "view",
      "type": "function",
      "constant": true
    },
    {
      "inputs": [
        {
          "internalType": "uint256",
          "name": "_campaignID",
          "type": "uint256"
        }
      ],
      "name": "refundBounty",
      "outputs": [],
      "stateMutability": "nonpayable",
      "type": "function"
    },
    {
      "inputs": [
        {
          "internalType": "uint256",
          "name": "_campaignID",
          "type": "uint256"
        }
      ],
      "name": "watchPlayer",
      "outputs": [
        {
          "internalType": "address[]",
          "name": "",
          "type": "address[]"
        }
      ],
      "stateMutability": "view",
      "type": "function",
      "constant": true
    },
    {
      "inputs": [
        {
          "internalType": "uint256",
          "name": "_campaignID",
          "type": "uint256"
        }
      ],
      "name": "checkWinner",
      "outputs": [
        {
          "internalType": "address[3]",
          "name": "",
          "type": "address[3]"
        }
      ],
      "stateMutability": "view",
      "type": "function",
      "constant": true
    },
    {
      "inputs": [],
      "name": "kill",
      "outputs": [],
      "stateMutability": "nonpayable",
      "type": "function"
    }
  ],
  "bytecode": "0x60806040526040516200319938038062003199833981810160405281019062000029919062000097565b33600560006101000a81548173ffffffffffffffffffffffffffffffffffffffff021916908373ffffffffffffffffffffffffffffffffffffffff1602179055508160018190555080600281905550505062000107565b6000815190506200009181620000ed565b92915050565b60008060408385031215620000b157620000b0620000e8565b5b6000620000c18582860162000080565b9250506020620000d48582860162000080565b9150509250929050565b6000819050919050565b600080fd5b620000f881620000de565b81146200010457600080fd5b50565b61308280620001176000396000f3fe6080604052600436106101095760003560e01c806369bcdb7d116100955780639348cef7116100645780639348cef714610393578063cd4b6914146103bc578063cfb3a493146103f9578063f12b851f14610422578063f2f038771461045f57610109565b806369bcdb7d146102c357806375c4b816146103005780638a8e5afb1461032b5780638e8cf4a81461036857610109565b80632c0f7b6f116100dc5780632c0f7b6f146101eb578063384b13931461021657806341c0e1b5146102465780634801abc11461025d57806358b1f29c1461029a57610109565b80630a4913c81461010e578063141961bc14610139578063173ebf4b1461017e57806318854939146101ae575b600080fd5b34801561011a57600080fd5b5061012361047b565b6040516101309190612905565b60405180910390f35b34801561014557600080fd5b50610160600480360381019061015b919061255a565b610481565b60405161017599989796959493929190612920565b60405180910390f35b61019860048036038101906101939190612607565b610550565b6040516101a59190612905565b60405180910390f35b3480156101ba57600080fd5b506101d560048036038101906101d0919061255a565b61089c565b6040516101e29190612877565b60405180910390f35b3480156101f757600080fd5b5061020061102e565b60405161020d9190612905565b60405180910390f35b610230600480360381019061022b919061255a565b611034565b60405161023d91906128cf565b60405180910390f35b34801561025257600080fd5b5061025b6110b4565b005b34801561026957600080fd5b50610284600480360381019061027f919061255a565b611149565b60405161029191906128b4565b60405180910390f35b3480156102a657600080fd5b506102c160048036038101906102bc919061255a565b6111f9565b005b3480156102cf57600080fd5b506102ea60048036038101906102e5919061255a565b61122c565b6040516102f791906128ea565b60405180910390f35b34801561030c57600080fd5b506103156112a6565b6040516103229190612905565b60405180910390f35b34801561033757600080fd5b50610352600480360381019061034d919061255a565b6112ac565b60405161035f91906128ea565b60405180910390f35b34801561037457600080fd5b5061037d6112dc565b60405161038a9190612905565b60405180910390f35b34801561039f57600080fd5b506103ba60048036038101906103b591906125c7565b6112e4565b005b3480156103c857600080fd5b506103e360048036038101906103de919061255a565b611361565b6040516103f09190612905565b60405180910390f35b34801561040557600080fd5b50610420600480360381019061041b919061255a565b611399565b005b34801561042e57600080fd5b506104496004803603810190610444919061255a565b611422565b6040516104569190612892565b60405180910390f35b61047960048036038101906104749190612587565b611562565b005b60025481565b6003818154811061049157600080fd5b90600052602060002090600902016000915090508060000160009054906101000a900463ffffffff16908060000160049054906101000a90046bffffffffffffffffffffffff16908060000160109054906101000a900461ffff16908060000160129054906101000a900461ffff16908060010154908060020160009054906101000a900460ff16908060030154908060040160009054906101000a900463ffffffff16908060040160049054906101000a900463ffffffff16905089565b6000816bffffffffffffffffffffffff166000811161056e57600080fd5b823373ffffffffffffffffffffffffffffffffffffffff1631816bffffffffffffffffffffffff1611156105a157600080fd5b60038054905092506003600181600181540180825580915050039060005260206000209050506000600384815481106105dd576105dc612f97565b5b906000526020600020906009020190506000808154809291906105ff90612e57565b9190505550600060046000868152602001908152602001600020620f42400181905550438160000160006101000a81548163ffffffff021916908363ffffffff160217905550848160000160046101000a8154816bffffffffffffffffffffffff02191690836bffffffffffffffffffffffff16021790555060c880434445426040516020016106929493929190612829565b6040516020818303038152906040528051906020012060001c6106b59190612ed7565b6106bf9190612a85565b8160000160106101000a81548161ffff021916908361ffff16021790555060c8434445426040516020016106f69493929190612829565b6040516020818303038152906040528051906020012060001c6107199190612ed7565b8160000160126101000a81548161ffff021916908361ffff16021790555034816003018190555060405180604001604052803373ffffffffffffffffffffffffffffffffffffffff168152602001348152508160050160003373ffffffffffffffffffffffffffffffffffffffff1673ffffffffffffffffffffffffffffffffffffffff16815260200190815260200160002060008201518160000160006101000a81548173ffffffffffffffffffffffffffffffffffffffff021916908373ffffffffffffffffffffffffffffffffffffffff160217905550602082015181600101559050508060000160009054906101000a900463ffffffff1663ffffffff163373ffffffffffffffffffffffffffffffffffffffff16857f1fec0e961ed9a5d582eb83ec0029dc7c1f0cdd44cfae6f49c8e316b8005d1516888560000160109054906101000a900461ffff168660000160129054906101000a900461ffff168b60405161088c94939291906129ad565b60405180910390a4505050919050565b6108a4612458565b6000600383815481106108ba576108b9612f97565b5b906000526020600020906009020190508060040160009054906101000a900463ffffffff1663ffffffff168160040160049054906101000a900463ffffffff1663ffffffff161461090a57600080fd5b60008160040160009054906101000a900463ffffffff1663ffffffff16141561093257600080fd5b600060046000858152602001908152602001600020620f424001549050600061095a85611422565b905060008267ffffffffffffffff81111561097857610977612fc6565b5b6040519080825280602002602001820160405280156109a65781602001602082028036833780820191505090505b50905060005b83811015610a8857610a568560070160008584815181106109d0576109cf612f97565b5b602002602001015173ffffffffffffffffffffffffffffffffffffffff1673ffffffffffffffffffffffffffffffffffffffff168152602001908152602001600020600001600480602002604051908101604052809291908260048015610a4c576020028201915b815481526020019060010190808311610a38575b50505050506115a9565b828281518110610a6957610a68612f97565b5b6020026020010181815250508080610a8090612e57565b9150506109ac565b50610a9161247a565b600081600060038110610aa757610aa6612f97565b5b602002018181525050600081600160038110610ac657610ac5612f97565b5b602002018181525050600081600260038110610ae557610ae4612f97565b5b602002018181525050610af6612458565b60005b8581101561101f57838181518110610b1457610b13612f97565b5b602002602001015183600060038110610b3057610b2f612f97565b5b60200201511015610d825782600160038110610b4f57610b4e612f97565b5b602002015183600060038110610b6857610b67612f97565b5b602002015110610cdf5782600260038110610b8657610b85612f97565b5b602002015183600160038110610b9f57610b9e612f97565b5b602002015110610c445782600160038110610bbd57610bbc612f97565b5b602002015183600260038110610bd657610bd5612f97565b5b60200201818152505081600160038110610bf357610bf2612f97565b5b602002015182600260038110610c0c57610c0b612f97565b5b602002019073ffffffffffffffffffffffffffffffffffffffff16908173ffffffffffffffffffffffffffffffffffffffff16815250505b82600160038110610c5857610c57612f97565b5b602002015183600060038110610c7157610c70612f97565b5b60200201818152505081600160038110610c8e57610c8d612f97565b5b602002015182600060038110610ca757610ca6612f97565b5b602002019073ffffffffffffffffffffffffffffffffffffffff16908173ffffffffffffffffffffffffffffffffffffffff16815250505b838181518110610cf257610cf1612f97565b5b602002602001015183600060038110610d0e57610d0d612f97565b5b602002018181525050848181518110610d2a57610d29612f97565b5b602002602001015182600060038110610d4657610d45612f97565b5b602002019073ffffffffffffffffffffffffffffffffffffffff16908173ffffffffffffffffffffffffffffffffffffffff168152505061100c565b838181518110610d9557610d94612f97565b5b602002602001015183600160038110610db157610db0612f97565b5b60200201511015610f315782600260038110610dd057610dcf612f97565b5b602002015183600160038110610de957610de8612f97565b5b602002015110610e8e5782600160038110610e0757610e06612f97565b5b602002015183600260038110610e2057610e1f612f97565b5b60200201818152505081600160038110610e3d57610e3c612f97565b5b602002015182600260038110610e5657610e55612f97565b5b602002019073ffffffffffffffffffffffffffffffffffffffff16908173ffffffffffffffffffffffffffffffffffffffff16815250505b838181518110610ea157610ea0612f97565b5b602002602001015183600160038110610ebd57610ebc612f97565b5b602002018181525050848181518110610ed957610ed8612f97565b5b602002602001015182600160038110610ef557610ef4612f97565b5b602002019073ffffffffffffffffffffffffffffffffffffffff16908173ffffffffffffffffffffffffffffffffffffffff168152505061100b565b838181518110610f4457610f43612f97565b5b602002602001015183600260038110610f6057610f5f612f97565b5b6020020151101561100a57838181518110610f7e57610f7d612f97565b5b602002602001015183600260038110610f9a57610f99612f97565b5b602002018181525050848181518110610fb657610fb5612f97565b5b602002602001015182600260038110610fd257610fd1612f97565b5b602002019073ffffffffffffffffffffffffffffffffffffffff16908173ffffffffffffffffffffffffffffffffffffffff16815250505b5b5b808061101790612e57565b915050610af9565b50809650505050505050919050565b60005481565b6000806003838154811061104b5761104a612f97565b5b9060005260206000209060090201905060008160050160003373ffffffffffffffffffffffffffffffffffffffff1673ffffffffffffffffffffffffffffffffffffffff16815260200190815260200160002090506110ab84838361165e565b92505050919050565b600560009054906101000a900473ffffffffffffffffffffffffffffffffffffffff1673ffffffffffffffffffffffffffffffffffffffff163373ffffffffffffffffffffffffffffffffffffffff161461110e57600080fd5b600560009054906101000a900473ffffffffffffffffffffffffffffffffffffffff1673ffffffffffffffffffffffffffffffffffffffff16ff5b61115161249c565b6003828154811061116557611164612f97565b5b906000526020600020906009020160070160003373ffffffffffffffffffffffffffffffffffffffff1673ffffffffffffffffffffffffffffffffffffffff1681526020019081526020016000206000016004806020026040519081016040528092919082600480156111ed576020028201915b8154815260200190600101908083116111d9575b50505050509050919050565b60006003828154811061120f5761120e612f97565b5b90600052602060002090600902019050611228816117f4565b5050565b6000806003838154811061124357611242612f97565b5b9060005260206000209060090201905060008160060160003373ffffffffffffffffffffffffffffffffffffffff1673ffffffffffffffffffffffffffffffffffffffff1681526020019081526020016000209050806001015492505050919050565b60015481565b6000816040516020016112bf919061280e565b604051602081830303815290604052805190602001209050919050565b600047905090565b6000600383815481106112fa576112f9612f97565b5b9060005260206000209060090201905060008160060160003373ffffffffffffffffffffffffffffffffffffffff1673ffffffffffffffffffffffffffffffffffffffff168152602001908152602001600020905061135b848484846119f1565b50505050565b6000806003838154811061137857611377612f97565b5b9060005260206000209060090201905061139181611b1d565b915050919050565b6000600382815481106113af576113ae612f97565b5b9060005260206000209060090201905060008160060160003373ffffffffffffffffffffffffffffffffffffffff1673ffffffffffffffffffffffffffffffffffffffff1681526020019081526020016000209050600061140f8461089c565b905061141c838383611b8a565b50505050565b6060600060046000848152602001908152602001600020620f4240015467ffffffffffffffff81111561145857611457612fc6565b5b6040519080825280602002602001820160405280156114865781602001602082028036833780820191505090505b50905060005b60046000858152602001908152602001600020620f42400154811015611558576004600085815260200190815260200160002060000181620f424081106114d6576114d5612f97565b5b0160009054906101000a900473ffffffffffffffffffffffffffffffffffffffff1682828151811061150b5761150a612f97565b5b602002602001019073ffffffffffffffffffffffffffffffffffffffff16908173ffffffffffffffffffffffffffffffffffffffff1681525050808061155090612e57565b91505061148c565b5080915050919050565b80600081141561157157600080fd5b60006003848154811061158757611586612f97565b5b906000526020600020906009020190506115a384843484611c7d565b50505050565b600080826003600481106115c0576115bf612f97565b5b6020020151600a846002600481106115db576115da612f97565b5b60200201516115ea9190612cb5565b606485600160048110611600576115ff612f97565b5b602002015161160f9190612cb5565b6103e88660006004811061162657611625612f97565b5b60200201516116359190612cb5565b61163f9190612abd565b6116499190612abd565b6116539190612abd565b905080915050919050565b60008160000160009054906101000a900473ffffffffffffffffffffffffffffffffffffffff16600073ffffffffffffffffffffffffffffffffffffffff168173ffffffffffffffffffffffffffffffffffffffff16146116be57600080fd5b348460030160008282546116d29190612abd565b9250508190555060405180604001604052803373ffffffffffffffffffffffffffffffffffffffff168152602001348152508460050160003373ffffffffffffffffffffffffffffffffffffffff1673ffffffffffffffffffffffffffffffffffffffff16815260200190815260200160002060008201518160000160006101000a81548173ffffffffffffffffffffffffffffffffffffffff021916908373ffffffffffffffffffffffffffffffffffffffff160217905550602082015181600101559050503373ffffffffffffffffffffffffffffffffffffffff16857f23dccbd65d14a6f1eca0cb7a8c085ea070cc1dc36fde87272dcd7b2e0c4748b2346040516117e09190612905565b60405180910390a360019150509392505050565b8060000160009054906101000a900463ffffffff1663ffffffff168043101561181c57600080fd5b8160040160009054906101000a900463ffffffff168260040160049054906101000a900463ffffffff168063ffffffff168263ffffffff16148015611868575060008263ffffffff1614155b1561187257600080fd5b8360050160003373ffffffffffffffffffffffffffffffffffffffff1673ffffffffffffffffffffffffffffffffffffffff16815260200190815260200160002060000160009054906101000a900473ffffffffffffffffffffffffffffffffffffffff163373ffffffffffffffffffffffffffffffffffffffff168173ffffffffffffffffffffffffffffffffffffffff161461190f57600080fd5b60008560050160003373ffffffffffffffffffffffffffffffffffffffff1673ffffffffffffffffffffffffffffffffffffffff16815260200190815260200160002060010154905060008660050160003373ffffffffffffffffffffffffffffffffffffffff1673ffffffffffffffffffffffffffffffffffffffff168152602001908152602001600020600101819055503373ffffffffffffffffffffffffffffffffffffffff166108fc829081150290604051600060405180830381858888f193505050501580156119e8573d6000803e3d6000fd5b50505050505050565b8281600101548082604051602001611a09919061280e565b6040516020818303038152906040528051906020012014611a2957600080fd5b8260030160009054906101000a900460ff168015611a4657600080fd5b85846000018190555060018460030160006101000a81548160ff02191690831515021790555084600401600481819054906101000a900463ffffffff1680929190611a9090612ea0565b91906101000a81548163ffffffff021916908363ffffffff16021790555050836000015485600101600082825418925050819055503373ffffffffffffffffffffffffffffffffffffffff16877f9141bfaedbc77aa7b8d9c989cd81909d95bb1677e556e34cfd45e50e0bea296788604051611b0c9190612905565b60405180910390a350505050505050565b60008160040160009054906101000a900463ffffffff1663ffffffff168260040160049054906101000a900463ffffffff1663ffffffff161415611b845760018260020160006101000a81548160ff02191690831515021790555081600101549050611b85565b5b919050565b8160030160019054906101000a900460ff168015611ba757600080fd5b60008460040160049054906101000a900463ffffffff1663ffffffff161115611c6b578260030160009054906101000a900460ff1615611c66576000805b6003811015611c59573373ffffffffffffffffffffffffffffffffffffffff16848260038110611c1857611c17612f97565b5b602002015173ffffffffffffffffffffffffffffffffffffffff161415611c4657611c4386826120a6565b91505b8080611c5190612e57565b915050611be5565b50611c64818561212e565b505b611c77565b611c7660008461212e565b5b50505050565b8060000160049054906101000a90046bffffffffffffffffffffffff166bffffffffffffffffffffffff1680341015611cb557600080fd5b8160000160049054906101000a90046bffffffffffffffffffffffff166bffffffffffffffffffffffff16600154341115611cef57600080fd5b8260060160003373ffffffffffffffffffffffffffffffffffffffff1673ffffffffffffffffffffffffffffffffffffffff1681526020019081526020016000206001015460008114611d4157600080fd5b83600801600087815260200190815260200160002060009054906101000a900460ff1615611d6e57600080fd5b6000611d798761219f565b90506040518060a001604052806000815260200188815260200160008152602001600015158152602001600015158152508560060160003373ffffffffffffffffffffffffffffffffffffffff1673ffffffffffffffffffffffffffffffffffffffff16815260200190815260200160002060008201518160000155602082015181600101556040820151816002015560608201518160030160006101000a81548160ff02191690831515021790555060808201518160030160016101000a81548160ff02191690831515021790555090505060405180606001604052808281526020018781526020013373ffffffffffffffffffffffffffffffffffffffff168152508560070160003373ffffffffffffffffffffffffffffffffffffffff1673ffffffffffffffffffffffffffffffffffffffff168152602001908152602001600020600082015181600001906004611ed59291906124be565b506020820151816004015560408201518160050160006101000a81548173ffffffffffffffffffffffffffffffffffffffff021916908373ffffffffffffffffffffffffffffffffffffffff16021790555090505084600401600081819054906101000a900463ffffffff1680929190611f4e90612ea0565b91906101000a81548163ffffffff021916908363ffffffff16021790555050600185600801600089815260200190815260200160002060006101000a81548160ff02191690831515021790555033600460008a8152602001908152602001600020600001600460008b8152602001908152602001600020620f42400154620f42408110611fde57611fdd612f97565b5b0160006101000a81548173ffffffffffffffffffffffffffffffffffffffff021916908373ffffffffffffffffffffffffffffffffffffffff1602179055506001600460008a8152602001908152602001600020620f42400160008282546120469190612abd565b925050819055503373ffffffffffffffffffffffffffffffffffffffff16887f918c00c65dd2a8dee4c6985d1d67f04aa8cd2c93e8d427d398a90444c7f7c75e8960405161209491906128ea565b60405180910390a35050505050505050565b60008260040160049054906101000a900463ffffffff1663ffffffff168360040160009054906101000a900463ffffffff1663ffffffff16111561211b578260040160049054906101000a900463ffffffff1663ffffffff1661210a846003612313565b6121149190612b13565b9050612128565b6121258383612313565b90505b92915050565b81816002018190555060018160030160016101000a81548160ff0219169083151502179055503373ffffffffffffffffffffffffffffffffffffffff166108fc839081150290604051600060405180830381858888f1935050505015801561219a573d6000803e3d6000fd5b505050565b6121a761249c565b60008083901c77ffffffffffffffffffffffffffffffffffffffffffffffff191690506000600884901c77ffffffffffffffffffffffffffffffffffffffffffffffff191690506000601085901c77ffffffffffffffffffffffffffffffffffffffffffffffff191690506000602086901c77ffffffffffffffffffffffffffffffffffffffffffffffff1916905061223e61249c565b600a612249866123c1565b6122539190612f08565b8160006004811061226757612266612f97565b5b602002018181525050600a61227b856123c1565b6122859190612f08565b8160016004811061229957612298612f97565b5b602002018181525050600a6122ad846123c1565b6122b79190612f08565b816002600481106122cb576122ca612f97565b5b602002018181525050600a6122df836123c1565b6122e99190612f08565b816003600481106122fd576122fc612f97565b5b6020020181815250508095505050505050919050565b60008082141561232957600147901c90506123bb565b60018214806123385750600282145b1561234957600247901c90506123bb565b8260000160049054906101000a90046bffffffffffffffffffffffff168360040160049054906101000a900463ffffffff168460040160009054906101000a900463ffffffff1661239a9190612d89565b63ffffffff166123aa9190612d0f565b6bffffffffffffffffffffffff1690505b92915050565b60008060005b602060ff1681101561244e576001816123e09190612abd565b602060ff166123ef9190612d55565b60086123fb9190612cb5565b60026124079190612b97565b84826020811061241a57612419612f97565b5b1a60f81b60f81c60ff1661242e9190612cb5565b826124399190612abd565b9150808061244690612e57565b9150506123c7565b5080915050919050565b6040518060600160405280600390602082028036833780820191505090505090565b6040518060600160405280600390602082028036833780820191505090505090565b6040518060800160405280600490602082028036833780820191505090505090565b82600481019282156124ed579160200282015b828111156124ec5782518255916020019190600101906124d1565b5b5090506124fa91906124fe565b5090565b5b808211156125175760008160009055506001016124ff565b5090565b60008135905061252a81613007565b92915050565b60008135905061253f8161301e565b92915050565b60008135905061255481613035565b92915050565b6000602082840312156125705761256f612ff5565b5b600061257e84828501612530565b91505092915050565b6000806040838503121561259e5761259d612ff5565b5b60006125ac85828601612530565b92505060206125bd8582860161251b565b9150509250929050565b600080604083850312156125de576125dd612ff5565b5b60006125ec85828601612530565b92505060206125fd85828601612530565b9150509250929050565b60006020828403121561261d5761261c612ff5565b5b600061262b84828501612545565b91505092915050565b60006126408383612664565b60208301905092915050565b600061265883836127ac565b60208301905092915050565b61266d81612dbd565b82525050565b61267c81612a16565b6126868184612a5e565b9250612691826129f2565b8060005b838110156126c25781516126a98782612634565b96506126b483612a37565b925050600181019050612695565b505050505050565b60006126d582612a21565b6126df8185612a69565b93506126ea836129fc565b8060005b8381101561271b5781516127028882612634565b975061270d83612a44565b9250506001810190506126ee565b5085935050505092915050565b61273181612a2c565b61273b8184612a7a565b925061274682612a0c565b8060005b8381101561277757815161275e878261264c565b965061276983612a51565b92505060018101905061274a565b505050505050565b61278881612dcf565b82525050565b61279781612ddb565b82525050565b6127a681612de5565b82525050565b6127b581612e13565b82525050565b6127c481612e13565b82525050565b6127db6127d682612e13565b612ecd565b82525050565b6127ea81612e1d565b82525050565b6127f981612e45565b82525050565b61280881612e2d565b82525050565b600061281a82846127ca565b60208201915081905092915050565b600061283582876127ca565b60208201915061284582866127ca565b60208201915061285582856127ca565b60208201915061286582846127ca565b60208201915081905095945050505050565b600060608201905061288c6000830184612673565b92915050565b600060208201905081810360008301526128ac81846126ca565b905092915050565b60006080820190506128c96000830184612728565b92915050565b60006020820190506128e4600083018461277f565b92915050565b60006020820190506128ff600083018461278e565b92915050565b600060208201905061291a60008301846127bb565b92915050565b600061012082019050612936600083018c6127e1565b612943602083018b6127ff565b612950604083018a61279d565b61295d606083018961279d565b61296a60808301886127bb565b61297760a083018761277f565b61298460c08301866127bb565b61299160e08301856127e1565b61299f6101008301846127e1565b9a9950505050505050505050565b60006080820190506129c260008301876127ff565b6129cf602083018661279d565b6129dc604083018561279d565b6129e960608301846127f0565b95945050505050565b6000819050919050565b6000819050602082019050919050565b6000819050919050565b600060039050919050565b600081519050919050565b600060049050919050565b6000602082019050919050565b6000602082019050919050565b6000602082019050919050565b600081905092915050565b600082825260208201905092915050565b600081905092915050565b6000612a9082612de5565b9150612a9b83612de5565b92508261ffff03821115612ab257612ab1612f39565b5b828201905092915050565b6000612ac882612e13565b9150612ad383612e13565b9250827fffffffffffffffffffffffffffffffffffffffffffffffffffffffffffffffff03821115612b0857612b07612f39565b5b828201905092915050565b6000612b1e82612e13565b9150612b2983612e13565b925082612b3957612b38612f68565b5b828204905092915050565b6000808291508390505b6001851115612b8e57808604811115612b6a57612b69612f39565b5b6001851615612b795780820291505b8081029050612b8785612ffa565b9450612b4e565b94509492505050565b6000612ba282612e13565b9150612bad83612e13565b9250612bda7fffffffffffffffffffffffffffffffffffffffffffffffffffffffffffffffff8484612be2565b905092915050565b600082612bf25760019050612cae565b81612c005760009050612cae565b8160018114612c165760028114612c2057612c4f565b6001915050612cae565b60ff841115612c3257612c31612f39565b5b8360020a915084821115612c4957612c48612f39565b5b50612cae565b5060208310610133831016604e8410600b8410161715612c845782820a905083811115612c7f57612c7e612f39565b5b612cae565b612c918484846001612b44565b92509050818404811115612ca857612ca7612f39565b5b81810290505b9392505050565b6000612cc082612e13565b9150612ccb83612e13565b9250817fffffffffffffffffffffffffffffffffffffffffffffffffffffffffffffffff0483118215151615612d0457612d03612f39565b5b828202905092915050565b6000612d1a82612e2d565b9150612d2583612e2d565b9250816bffffffffffffffffffffffff0483118215151615612d4a57612d49612f39565b5b828202905092915050565b6000612d6082612e13565b9150612d6b83612e13565b925082821015612d7e57612d7d612f39565b5b828203905092915050565b6000612d9482612e1d565b9150612d9f83612e1d565b925082821015612db257612db1612f39565b5b828203905092915050565b6000612dc882612df3565b9050919050565b60008115159050919050565b6000819050919050565b600061ffff82169050919050565b600073ffffffffffffffffffffffffffffffffffffffff82169050919050565b6000819050919050565b600063ffffffff82169050919050565b60006bffffffffffffffffffffffff82169050919050565b6000612e5082612e2d565b9050919050565b6000612e6282612e13565b91507fffffffffffffffffffffffffffffffffffffffffffffffffffffffffffffffff821415612e9557612e94612f39565b5b600182019050919050565b6000612eab82612e1d565b915063ffffffff821415612ec257612ec1612f39565b5b600182019050919050565b6000819050919050565b6000612ee282612de5565b9150612eed83612de5565b925082612efd57612efc612f68565b5b828206905092915050565b6000612f1382612e13565b9150612f1e83612e13565b925082612f2e57612f2d612f68565b5b828206905092915050565b7f4e487b7100000000000000000000000000000000000000000000000000000000600052601160045260246000fd5b7f4e487b7100000000000000000000000000000000000000000000000000000000600052601260045260246000fd5b7f4e487b7100000000000000000000000000000000000000000000000000000000600052603260045260246000fd5b7f4e487b7100000000000000000000000000000000000000000000000000000000600052604160045260246000fd5b600080fd5b60008160011c9050919050565b61301081612ddb565b811461301b57600080fd5b50565b61302781612e13565b811461303257600080fd5b50565b61303e81612e2d565b811461304957600080fd5b5056fea26469706673582212209a41409a3e0fa73bb2b5729a46effebb218c57dab4a14161a25af4cb4577766764736f6c63430008070033",
  "immutableReferences": {},
  "source": "// SPDX-License-Identifier: MIT\r\n\r\npragma solidity >=0.4.24 <=0.8.7;\r\n\r\ncontract Casino {\r\n    \r\n    struct Participant {\r\n        uint256 secret;\r\n        bytes32 commitment;\r\n        uint256 reward;\r\n        bool revealed;\r\n        bool rewarded;\r\n    }\r\n    \r\n    struct Player {\r\n        uint [4] bettingNumber;\r\n        uint256 bettingAmount;\r\n        address playerAddr;\r\n    }\r\n    \r\n    struct Consumer {\r\n        address consumerAddr;\r\n        uint256 bountyPot;\r\n    }\r\n    \r\n    struct Campaign {\r\n        uint32 blockNum;\r\n        uint96 deposit;\r\n        uint16 commitBalkline;\r\n        uint16 commitDeadline;\r\n        \r\n        uint256 random;\r\n        bool settled;\r\n        uint256 bountyPot;\r\n        uint32 commitNum;\r\n        uint32 revealsNum;\r\n        \r\n        mapping (address => Consumer) consumers;\r\n        mapping (address => Participant) participants;\r\n        mapping (address => Player) players;\r\n        mapping (bytes32 => bool) commitments;\r\n    }\r\n\r\n    struct playerAddress {\r\n        address[1000000] playerList;\r\n        uint256 counter;\r\n    }\r\n    \r\n    uint256 public numCampaigns;\r\n    uint256 public maxBetting;\r\n    uint256 public maximumPlayer;\r\n    Campaign[] public campaigns;\r\n    mapping(uint256 => playerAddress) internal playersMap;\r\n    address payable founder;\r\n    \r\n    modifier blankAddress(address n) { if (n != address(0)) revert(); _; }\r\n    \r\n    modifier moreThanZero(uint256 _deposit) {if (_deposit <= 0) revert(); _; }\r\n    \r\n    modifier notBeBlank(bytes32 _s) { if (_s == \"\") revert(); _; }\r\n    \r\n    modifier beBlank(bytes32 _s) { if (_s != \"\") revert(); _; }\r\n    \r\n    modifier beFalse(bool _t) { if (_t) revert(); _; }\r\n    \r\n    constructor(uint256 _maxBetting, uint256 _maximumPlayer) public payable{\r\n        founder = payable(msg.sender);\r\n        maxBetting = _maxBetting;\r\n        maximumPlayer = _maximumPlayer;\r\n    }\r\n    \r\n    event LogCampaignAdded(uint256 indexed campaignID,\r\n                           address indexed from,\r\n                           uint32 indexed blockNum,\r\n                           uint96 deposit,\r\n                           uint16 commitBalkline,\r\n                           uint16 commitDeadline,\r\n                           uint256 bountyPot);\r\n                           \r\n    modifier timeLineCheck(uint32 _blockNum, uint16 _commitBalkline, uint16 _commitDeadline) {\r\n        if(block.number >= _blockNum) revert();\r\n        if(_commitBalkline <= 0) revert();\r\n        if(_commitDeadline <= 0) revert();\r\n        if(_commitDeadline >= _commitBalkline) revert();\r\n        if(block.number >= _blockNum - _commitBalkline) revert();\r\n        \r\n        _;\r\n    }\r\n    \r\n    /*\r\n     struct Campaign {\r\n        uint32 blockNum;\r\n        uint96 deposit;\r\n        uint16 commitBalkline;\r\n        uint16 commitDeadline;\r\n        \r\n        uint256 random;\r\n        bool settled;\r\n        uint256 bountyPot;\r\n        uint32 commitNum;\r\n        uint32 revealsNum;\r\n        \r\n        mapping (address => Consumer) consumers;\r\n        mapping (address => Participant) participants;\r\n        mapping (bytes32 => bool) commitments;\r\n    }\r\n    \r\n    */\r\n    \r\n    modifier checkBalance(uint96 _deposit) { if (_deposit > msg.sender.balance ) revert(); _; }\r\n    \r\n    function newCampaignAuto(\r\n        uint96 _deposit\r\n    ) payable external \r\n        moreThanZero(_deposit) \r\n        checkBalance(_deposit)\r\n    returns(uint256 _campaignID){\r\n        _campaignID = campaigns.length;\r\n        campaigns.push();\r\n        Campaign storage c = campaigns[_campaignID];\r\n        numCampaigns++;\r\n         \r\n        playersMap[_campaignID].counter = 0;\r\n        c.blockNum = uint32(block.number);\r\n        c.deposit = _deposit;\r\n        c.commitBalkline = uint16(uint(keccak256(abi.encodePacked(block.number, block.difficulty, block.gaslimit, block.timestamp)))) % 200 + 200;\r\n        c.commitDeadline = uint16(uint(keccak256(abi.encodePacked(block.number, block.difficulty, block.gaslimit, block.timestamp)))) % 200;\r\n        c.bountyPot = msg.value;\r\n        c.consumers[msg.sender] = Consumer(msg.sender, msg.value); \r\n        \r\n        \r\n        \r\n        emit LogCampaignAdded(_campaignID, msg.sender, c.blockNum, _deposit, c.commitBalkline, c.commitDeadline, _deposit);\r\n        \r\n        return _campaignID;\r\n    }\r\n    \r\n    event LogFollow(uint256 indexed CampaignId, address indexed from, uint256 bountyPot);\r\n    \r\n    function follow(uint256 _campaignID) external payable returns (bool) {\r\n        Campaign storage c = campaigns[_campaignID];\r\n        Consumer storage consumer = c.consumers[msg.sender];\r\n        return followCampaign(_campaignID, c, consumer);\r\n    }\r\n    \r\n    modifier checkFollowPhase(uint256 _blockNum, uint16 _commitDeadline) {\r\n        if(block.number > _blockNum - _commitDeadline) revert();\r\n        _;\r\n    }\r\n    \r\n    function followCampaign(\r\n        uint256 _campaignID,\r\n        Campaign storage c,\r\n        Consumer storage consumer\r\n    ) \r\n    //checkFollowPhase(c.blockNum, c.commitDeadline) \r\n    blankAddress(consumer.consumerAddr)\r\n    internal returns(bool) {\r\n        c.bountyPot += msg.value;\r\n        c.consumers[msg.sender] = Consumer(msg.sender, msg.value);\r\n        \r\n        emit LogFollow(_campaignID, msg.sender, msg.value);\r\n        \r\n        return true;\r\n    }\r\n\r\n    event LogCommit(uint256 indexed CampaignId, address indexed from, bytes32 commitment);\r\n    \r\n    function commit(uint256 _campaignID, bytes32 _hs) notBeBlank(_hs) external payable {\r\n        Campaign storage c = campaigns[_campaignID];\r\n        commitmentCampaign(_campaignID, _hs, msg.value, c);\r\n    }\r\n    \r\n    modifier checkDeposit(uint256 _deposit) { if (msg.value < _deposit) revert(); _;}\r\n    \r\n    modifier checkMaximum(uint256 _deposit) { if (msg.value > maxBetting) revert(); _; }\r\n    \r\n    modifier checkCommitPhase(uint256 _blockNum, uint16 _commitBalkline, uint16 _commitDeadline) {\r\n        if (_blockNum < _commitBalkline || _blockNum < _commitDeadline) { \r\n            _; \r\n            \r\n        } else {\r\n            if (block.number < _blockNum - _commitBalkline) revert();\r\n            if (block.number > _blockNum - _commitDeadline) revert();\r\n        }\r\n        _;\r\n    }\r\n    \r\n\r\n    function getCommitmentNumber(uint256 _campaignID) public view returns (uint [4] memory){\r\n        return campaigns[_campaignID].players[msg.sender].bettingNumber;\r\n    }\r\n    \r\n    /*\r\n    struct Player {\r\n        uint [4] bettingNumber;\r\n        uint256 bettingAmount;\r\n        address playerAddr;\r\n    }\r\n    */\r\n    \r\n    modifier checkPlayer(uint256 _campaignID) {\r\n        address[] memory list = new address[](playersMap[_campaignID].counter);\r\n        bool check = false;\r\n        \r\n        for (uint i=0; i < list.length; i++) {\r\n            if (list[i] == msg.sender) check = true; \r\n        }\r\n        \r\n        if (!check) { revert(); _; } \r\n    }\r\n\r\n    function commitmentCampaign(\r\n        uint256 _campaignID,\r\n        bytes32 _hs,\r\n        uint256 betting,\r\n        Campaign storage c\r\n    ) checkDeposit(c.deposit) \r\n      checkMaximum(c.deposit)\r\n      //checkCommitPhase(c.blockNum, c.commitBalkline, c.commitDeadline)\r\n      beBlank(c.participants[msg.sender].commitment) internal {\r\n          if(c.commitments[_hs]) {\r\n              revert();\r\n          } else  {\r\n              \r\n              uint[4] memory arrayBettingNumber = commitmentsNumber(_hs);\r\n              \r\n              c.participants[msg.sender] = Participant(0, _hs, 0, false, false);\r\n              c.players[msg.sender] = Player(arrayBettingNumber, betting, msg.sender);\r\n              c.commitNum++;\r\n              c.commitments[_hs] = true;\r\n              \r\n              playersMap[_campaignID].playerList[playersMap[_campaignID].counter] = msg.sender;\r\n              playersMap[_campaignID].counter += 1;\r\n              \r\n              emit LogCommit(_campaignID, msg.sender, _hs);\r\n          }\r\n      }\r\n      \r\n      \r\n    function bytesToUint(bytes32 b) internal pure returns (uint){\r\n        uint number;\r\n        for(uint i=0;i<b.length;i++){\r\n            number = number + uint(uint8(b[i]))*(2**(8*(b.length-(i+1))));\r\n        }\r\n        return number;\r\n    }\r\n    \r\n    function commitmentsNumber(bytes32 _hs) internal pure returns (uint[4] memory){\r\n        bytes32 a = bytes32(bytes8(_hs >> 0));\r\n        bytes32 b = bytes32(bytes8(_hs >> 8));\r\n        bytes32 c = bytes32(bytes8(_hs >> 16));\r\n        bytes32 d = bytes32(bytes8(_hs >> 32));\r\n        \r\n        uint[4] memory temp;\r\n        \r\n        temp[0] = bytesToUint(a)%10;\r\n        temp[1] = bytesToUint(b)%10;\r\n        temp[2] = bytesToUint(c)%10;\r\n        temp[3] = bytesToUint(d)%10;\r\n        \r\n        return temp;\r\n    }\r\n    \r\n    function getCommitment(uint256 _campaignID) external view returns(bytes32) {\r\n        Campaign storage c = campaigns[_campaignID];\r\n        Participant storage p = c.participants[msg.sender];\r\n        return p.commitment;\r\n    }\r\n    \r\n    function shaCommit(uint256 _s) public pure returns (bytes32) {\r\n        return keccak256(abi.encodePacked(_s));\r\n    }\r\n    \r\n    function reveal(uint256 _campaignID, uint256 _s) external {\r\n        Campaign storage c = campaigns[_campaignID];\r\n        Participant storage p = c.participants[msg.sender];\r\n        revealCampaign(_campaignID, _s, c, p);\r\n    }\r\n    \r\n    event LogReveal(uint256 indexed CampaignId, address indexed from, uint256 secret);\r\n    \r\n    modifier checkRevealPhase(uint256 _blockNum, uint16 _commitDeadline) {\r\n        if (block.number <= _blockNum - _commitDeadline) revert();\r\n        if (block.number >= _blockNum) revert();\r\n        _;\r\n    }\r\n    \r\n    modifier checkSecret(uint256 _s, bytes32 _commitment) {\r\n        if (keccak256(abi.encodePacked(_s)) != _commitment) revert();\r\n        _;\r\n    }\r\n    \r\n    function revealCampaign(\r\n        uint256 _campaignID,\r\n        uint256 _s,\r\n        Campaign storage c,\r\n        Participant storage p\r\n    ) //checkRevealPhase(c.blockNum, c.commitDeadline)\r\n        checkSecret(_s, p.commitment)\r\n        beFalse(p.revealed) internal {\r\n        p.secret= _s;\r\n        p.revealed = true;\r\n        c.revealsNum++;\r\n        c.random ^= p.secret;\r\n        emit LogReveal(_campaignID, msg.sender, _s);\r\n    }\r\n    \r\n    modifier bountyPhase(uint256 _bnum){if (block.number < _bnum) revert(); _;}\r\n\r\n    function getRandom(uint256 _campaignID) external returns (uint256) {\r\n        Campaign storage c = campaigns[_campaignID];\r\n        return returnRandom(c);\r\n    }\r\n\r\n    function returnRandom(Campaign storage c) internal //bountyPhase(c.blockNum) \r\n    returns (uint256) {\r\n        if (c.revealsNum == c.commitNum) {\r\n            c.settled = true;\r\n            return c.random;\r\n        }\r\n    }\r\n    \r\n    //------------------------------------------------------------------------------------------------------------------------------\r\n    \r\n    function getMyBounty(uint256 _campaignID) external {\r\n        Campaign storage c = campaigns[_campaignID];\r\n        Participant storage p = c.participants[msg.sender];\r\n        address[3] memory w = checkWinner(_campaignID);\r\n        transferBounty(c, p, w);\r\n    }\r\n\r\n    function transferBounty(\r\n        Campaign storage c,\r\n        Participant storage p,\r\n        address[3] memory w\r\n        ) //bountyPhase(c.blockNum)\r\n        beFalse(p.rewarded) internal {\r\n        if (c.revealsNum > 0) {\r\n            if (p.revealed) {\r\n                uint256 share = 0;\r\n                for(uint i=0; i < 3; i++) {\r\n                    if (w[i] == msg.sender) { share = calculateShare(c, i); }\r\n                }\r\n                \r\n                returnReward(share, p);\r\n            }\r\n        // Nobody reveals\r\n        } else {\r\n            returnReward(0, p);\r\n        }\r\n    }\r\n\r\n    function calculateShare(Campaign storage c, uint256 winner) internal view returns (uint256 _share) {\r\n        // Someone does not reveal. Campaign fails.\r\n\r\n        if (c.commitNum > c.revealsNum) {\r\n            _share = fines(c, 3) / c.revealsNum;\r\n            // Campaign succeeds.\r\n        } else {\r\n            _share = fines(c, winner);\r\n        }\r\n        \r\n    }\r\n\r\n    function returnReward(\r\n        uint256 _share,\r\n        Participant storage p\r\n    ) internal {\r\n        p.reward = _share;\r\n        p.rewarded = true;\r\n        payable(msg.sender).transfer(_share);\r\n    }\r\n    \r\n    function getThisBalance() public view returns(uint256) {\r\n        return address(this).balance;\r\n    }\r\n    \r\n    function fines(Campaign storage c, uint256 winner) internal view returns (uint256) {\r\n        if(winner == 0) {\r\n            return address(this).balance >> 1;\r\n        } else if (winner == 1 || winner == 2) {\r\n            return address(this).balance >> 2;\r\n        }\r\n        \r\n        return (c.commitNum - c.revealsNum) * c.deposit;\r\n        \r\n    }\r\n\r\n    // If the campaign fails, the consumers can get back the bounty.\r\n    function refundBounty(uint256 _campaignID) external {\r\n        Campaign storage c = campaigns[_campaignID];\r\n        returnBounty(c);\r\n    }\r\n    \r\n    //------------------------------------------------------------------------------------------------------------------------------\r\n\r\n    modifier campaignFailed(uint32 _commitNum, uint32 _revealsNum) {\r\n        if (_commitNum == _revealsNum && _commitNum != 0) revert();\r\n        _;\r\n    }\r\n\r\n    modifier beConsumer(address _caddr) {\r\n        if (_caddr != msg.sender) revert();\r\n        _;\r\n    }\r\n\r\n    function returnBounty(Campaign storage c)\r\n        internal\r\n        bountyPhase(c.blockNum)\r\n        campaignFailed(c.commitNum, c.revealsNum)\r\n        beConsumer(c.consumers[msg.sender].consumerAddr) {\r\n        uint256 bountypot = c.consumers[msg.sender].bountyPot;\r\n        c.consumers[msg.sender].bountyPot = 0;\r\n        payable(msg.sender).transfer(bountypot);\r\n    }\r\n    \r\n    //------------------------------------------------------------------------------------------------------------------------------\r\n    \r\n     /*\r\n    struct Campaign {\r\n        uint32 blockNum; \r\n        uint96 deposit; //Founder's deposit\r\n        uint16 commitBalkline; // Start at this block\r\n        uint16 commitDeadline; // End at this block\r\n        \r\n        uint256 random; \r\n        bool settled;\r\n        uint256 bountyPot;\r\n        uint32 commitNum;\r\n        uint32 revealsNum;\r\n        \r\n        mapping (address => Consumer) consumers;\r\n        mapping (address => Participant) participants;\r\n        mapping (address => Player) players;\r\n        mapping (bytes32 => bool) commitments;\r\n    }\r\n    \r\n    Campaign[] public campaigns;\r\n    mapping(uint256 => address []) internal players;\r\n    */\r\n    \r\n    \r\n    function computeToUint(uint[4] memory bettingNumber) internal pure returns (uint256) {\r\n        uint256 temp = bettingNumber[0] * 1000 + bettingNumber[1] * 100 + bettingNumber[2] * 10 + bettingNumber[3];\r\n        return temp;\r\n    }\r\n    \r\n    \r\n    function watchPlayer(uint256 _campaignID) public view returns (address[] memory) {\r\n        address[] memory temp = new address[](playersMap[_campaignID].counter);\r\n        \r\n        for(uint256 i = 0; i < playersMap[_campaignID].counter; i++) {\r\n            temp[i] = playersMap[_campaignID].playerList[i];\r\n        }\r\n        return temp;\r\n    }\r\n    \r\n    function checkWinner(uint256 _campaignID) public view returns (address[3] memory) {\r\n        \r\n        Campaign storage c = campaigns[_campaignID];\r\n        \r\n        if (c.revealsNum != c.commitNum) {revert();}\r\n        if (c.commitNum == 0) {revert();}\r\n        \r\n        uint256 counter = playersMap[_campaignID].counter;\r\n        \r\n        address[] memory playerList = watchPlayer(_campaignID);\r\n        uint256 [] memory bettingNumberList = new uint256[](counter);\r\n        \r\n        for(uint i = 0; i < counter; i++) {\r\n            bettingNumberList[i] = computeToUint(c.players[playerList[i]].bettingNumber);\r\n        }\r\n        \r\n        \r\n        //find 1st, 2nd, 3rd biggest winner\r\n        uint256 [3] memory numberWinner;\r\n        numberWinner[0] = 0;\r\n        numberWinner[1] = 0;\r\n        numberWinner[2] = 0;\r\n        \r\n        address [3] memory addressWinner;\r\n        \r\n        for(uint i = 0; i < counter; i++) {\r\n            if (numberWinner[0] < bettingNumberList[i]) {\r\n                \r\n                if(numberWinner[0] >= numberWinner[1]) {\r\n                    \r\n                    if(numberWinner[1] >= numberWinner[2]) {\r\n                        numberWinner[2] = numberWinner[1];\r\n                        addressWinner[2] = addressWinner[1];\r\n                    } \r\n                    numberWinner[0] = numberWinner[1];\r\n                    addressWinner[0] = addressWinner[1];\r\n                }\r\n                \r\n                numberWinner[0] = bettingNumberList[i];\r\n                addressWinner[0] = playerList[i];\r\n                \r\n            } else if (numberWinner[1] < bettingNumberList[i]) {\r\n                \r\n                if(numberWinner[1] >= numberWinner[2]) {\r\n                    numberWinner[2] = numberWinner[1];\r\n                    addressWinner[2] = addressWinner[1];\r\n                }\r\n                \r\n                numberWinner[1] = bettingNumberList[i];\r\n                addressWinner[1] = playerList[i];\r\n                \r\n            } else if (numberWinner[2] < bettingNumberList[i]) {\r\n                numberWinner[2] = bettingNumberList[i];\r\n                addressWinner[2] = playerList[i];\r\n            }\r\n        }\r\n        \r\n        return addressWinner;\r\n    }\r\n    \r\n    function kill() public {\r\n        require(msg.sender == founder);\r\n        selfdestruct(founder);\r\n    }\r\n}",
  "sourcePath": "C:\\Users\\kkh54\\randaoCasino\\contracts\\randao-casino.sol",
  "compiler": {
    "name": "solc",
    "version": "0.8.7+commit.e28d00a7.Emscripten.clang"
  },
  "schemaVersion": "3.4.3",
  "updatedAt": "2021-08-19T12:14:52.015Z",
  "networkType": "ethereum",
  "devdoc": {
    "kind": "dev",
    "methods": {},
    "version": 1
  },
  "userdoc": {
    "kind": "user",
    "methods": {},
    "version": 1
  }
}