{
  "contractName": "Casino",
  "abi": [
    {
      "inputs": [
        {
          "internalType": "uint256",
          "name": "_maxBetting",
          "type": "uint256"
        },
        {
          "internalType": "uint256",
          "name": "_maximumPlayer",
          "type": "uint256"
        }
      ],
      "stateMutability": "payable",
      "type": "constructor",
      "payable": true
    },
    {
      "anonymous": false,
      "inputs": [
        {
          "indexed": true,
          "internalType": "uint256",
          "name": "campaignID",
          "type": "uint256"
        },
        {
          "indexed": true,
          "internalType": "address",
          "name": "from",
          "type": "address"
        },
        {
          "indexed": true,
          "internalType": "uint32",
          "name": "blockNum",
          "type": "uint32"
        },
        {
          "indexed": false,
          "internalType": "uint256",
          "name": "deposit",
          "type": "uint256"
        },
        {
          "indexed": false,
          "internalType": "uint16",
          "name": "commitBalkline",
          "type": "uint16"
        },
        {
          "indexed": false,
          "internalType": "uint16",
          "name": "commitDeadline",
          "type": "uint16"
        },
        {
          "indexed": false,
          "internalType": "uint256",
          "name": "bountyPot",
          "type": "uint256"
        }
      ],
      "name": "LogCampaignAdded",
      "type": "event"
    },
    {
      "anonymous": false,
      "inputs": [
        {
          "indexed": true,
          "internalType": "uint256",
          "name": "CampaignId",
          "type": "uint256"
        },
        {
          "indexed": true,
          "internalType": "address",
          "name": "from",
          "type": "address"
        },
        {
          "indexed": false,
          "internalType": "bytes32",
          "name": "commitment",
          "type": "bytes32"
        }
      ],
      "name": "LogCommit",
      "type": "event"
    },
    {
      "anonymous": false,
      "inputs": [
        {
          "indexed": true,
          "internalType": "uint256",
          "name": "CampaignId",
          "type": "uint256"
        },
        {
          "indexed": true,
          "internalType": "address",
          "name": "from",
          "type": "address"
        },
        {
          "indexed": false,
          "internalType": "uint256",
          "name": "bountyPot",
          "type": "uint256"
        }
      ],
      "name": "LogFollow",
      "type": "event"
    },
    {
      "anonymous": false,
      "inputs": [
        {
          "indexed": true,
          "internalType": "uint256",
          "name": "CampaignId",
          "type": "uint256"
        },
        {
          "indexed": true,
          "internalType": "address",
          "name": "from",
          "type": "address"
        },
        {
          "indexed": false,
          "internalType": "uint256",
          "name": "secret",
          "type": "uint256"
        }
      ],
      "name": "LogReveal",
      "type": "event"
    },
    {
      "inputs": [
        {
          "internalType": "uint256",
          "name": "",
          "type": "uint256"
        }
      ],
      "name": "campaigns",
      "outputs": [
        {
          "internalType": "uint32",
          "name": "blockNum",
          "type": "uint32"
        },
        {
          "internalType": "uint256",
          "name": "deposit",
          "type": "uint256"
        },
        {
          "internalType": "uint16",
          "name": "commitBalkline",
          "type": "uint16"
        },
        {
          "internalType": "uint16",
          "name": "commitDeadline",
          "type": "uint16"
        },
        {
          "internalType": "uint256",
          "name": "random",
          "type": "uint256"
        },
        {
          "internalType": "bool",
          "name": "settled",
          "type": "bool"
        },
        {
          "internalType": "uint256",
          "name": "bountyPot",
          "type": "uint256"
        },
        {
          "internalType": "uint32",
          "name": "commitNum",
          "type": "uint32"
        },
        {
          "internalType": "uint32",
          "name": "revealsNum",
          "type": "uint32"
        }
      ],
      "stateMutability": "view",
      "type": "function",
      "constant": true
    },
    {
      "inputs": [],
      "name": "maxBetting",
      "outputs": [
        {
          "internalType": "uint256",
          "name": "",
          "type": "uint256"
        }
      ],
      "stateMutability": "view",
      "type": "function",
      "constant": true
    },
    {
      "inputs": [],
      "name": "maximumPlayer",
      "outputs": [
        {
          "internalType": "uint256",
          "name": "",
          "type": "uint256"
        }
      ],
      "stateMutability": "view",
      "type": "function",
      "constant": true
    },
    {
      "inputs": [],
      "name": "numCampaigns",
      "outputs": [
        {
          "internalType": "uint256",
          "name": "",
          "type": "uint256"
        }
      ],
      "stateMutability": "view",
      "type": "function",
      "constant": true
    },
    {
      "inputs": [],
      "name": "newCampaignAuto",
      "outputs": [
        {
          "internalType": "uint256",
          "name": "_campaignID",
          "type": "uint256"
        }
      ],
      "stateMutability": "payable",
      "type": "function",
      "payable": true
    },
    {
      "inputs": [
        {
          "internalType": "uint256",
          "name": "_campaignID",
          "type": "uint256"
        }
      ],
      "name": "follow",
      "outputs": [
        {
          "internalType": "bool",
          "name": "",
          "type": "bool"
        }
      ],
      "stateMutability": "payable",
      "type": "function",
      "payable": true
    },
    {
      "inputs": [
        {
          "internalType": "uint256",
          "name": "_campaignID",
          "type": "uint256"
        },
        {
          "internalType": "bytes32",
          "name": "_hs",
          "type": "bytes32"
        }
      ],
      "name": "commit",
      "outputs": [],
      "stateMutability": "payable",
      "type": "function",
      "payable": true
    },
    {
      "inputs": [
        {
          "internalType": "uint256",
          "name": "_campaignID",
          "type": "uint256"
        }
      ],
      "name": "getCommitmentNumber",
      "outputs": [
        {
          "internalType": "uint256[4]",
          "name": "",
          "type": "uint256[4]"
        }
      ],
      "stateMutability": "view",
      "type": "function",
      "constant": true
    },
    {
      "inputs": [
        {
          "internalType": "uint256",
          "name": "_campaignID",
          "type": "uint256"
        }
      ],
      "name": "getCommitment",
      "outputs": [
        {
          "internalType": "bytes32",
          "name": "",
          "type": "bytes32"
        }
      ],
      "stateMutability": "view",
      "type": "function",
      "constant": true
    },
    {
      "inputs": [
        {
          "internalType": "uint256",
          "name": "_s",
          "type": "uint256"
        }
      ],
      "name": "shaCommit",
      "outputs": [
        {
          "internalType": "bytes32",
          "name": "",
          "type": "bytes32"
        }
      ],
      "stateMutability": "pure",
      "type": "function",
      "constant": true
    },
    {
      "inputs": [
        {
          "internalType": "uint256",
          "name": "_campaignID",
          "type": "uint256"
        },
        {
          "internalType": "uint256",
          "name": "_s",
          "type": "uint256"
        }
      ],
      "name": "reveal",
      "outputs": [],
      "stateMutability": "nonpayable",
      "type": "function"
    },
    {
      "inputs": [
        {
          "internalType": "uint256",
          "name": "_campaignID",
          "type": "uint256"
        }
      ],
      "name": "getRandom",
      "outputs": [
        {
          "internalType": "uint256",
          "name": "",
          "type": "uint256"
        }
      ],
      "stateMutability": "nonpayable",
      "type": "function"
    },
    {
      "inputs": [
        {
          "internalType": "uint256",
          "name": "_campaignID",
          "type": "uint256"
        }
      ],
      "name": "getMyBounty",
      "outputs": [],
      "stateMutability": "nonpayable",
      "type": "function"
    },
    {
      "inputs": [],
      "name": "getThisBalance",
      "outputs": [
        {
          "internalType": "uint256",
          "name": "",
          "type": "uint256"
        }
      ],
      "stateMutability": "view",
      "type": "function",
      "constant": true
    },
    {
      "inputs": [
        {
          "internalType": "uint256",
          "name": "_campaignID",
          "type": "uint256"
        }
      ],
      "name": "refundBounty",
      "outputs": [],
      "stateMutability": "nonpayable",
      "type": "function"
    },
    {
      "inputs": [
        {
          "internalType": "uint256",
          "name": "_campaignID",
          "type": "uint256"
        }
      ],
      "name": "watchPlayer",
      "outputs": [
        {
          "internalType": "address[]",
          "name": "",
          "type": "address[]"
        }
      ],
      "stateMutability": "view",
      "type": "function",
      "constant": true
    },
    {
      "inputs": [
        {
          "internalType": "uint256",
          "name": "_campaignID",
          "type": "uint256"
        }
      ],
      "name": "checkWinner",
      "outputs": [
        {
          "internalType": "address[3]",
          "name": "",
          "type": "address[3]"
        }
      ],
      "stateMutability": "view",
      "type": "function",
      "constant": true
    },
    {
      "inputs": [],
      "name": "kill",
      "outputs": [],
      "stateMutability": "nonpayable",
      "type": "function"
    }
  ],
  "bytecode": "0x6080604052604051620030ee380380620030ee833981810160405281019062000029919062000097565b33600560006101000a81548173ffffffffffffffffffffffffffffffffffffffff021916908373ffffffffffffffffffffffffffffffffffffffff1602179055508160018190555080600281905550505062000107565b6000815190506200009181620000ed565b92915050565b60008060408385031215620000b157620000b0620000e8565b5b6000620000c18582860162000080565b9250506020620000d48582860162000080565b9150509250929050565b6000819050919050565b600080fd5b620000f881620000de565b81146200010457600080fd5b50565b612fd780620001176000396000f3fe6080604052600436106101095760003560e01c806375c4b81611610095578063cd4b691411610064578063cd4b69141461038c578063cfb3a493146103c9578063f12b851f146103f2578063f2f038771461042f578063fb63fc651461044b57610109565b806375c4b816146102d05780638a8e5afb146102fb5780638e8cf4a8146103385780639348cef71461036357610109565b8063384b1393116100dc578063384b1393146101e657806341c0e1b5146102165780634801abc11461022d57806358b1f29c1461026a57806369bcdb7d1461029357610109565b80630a4913c81461010e578063141961bc14610139578063188549391461017e5780632c0f7b6f146101bb575b600080fd5b34801561011a57600080fd5b50610123610469565b604051610130919061290e565b60405180910390f35b34801561014557600080fd5b50610160600480360381019061015b919061256b565b61046f565b60405161017599989796959493929190612929565b60405180910390f35b34801561018a57600080fd5b506101a560048036038101906101a0919061256b565b610526565b6040516101b2919061283b565b60405180910390f35b3480156101c757600080fd5b506101d0610cb8565b6040516101dd919061290e565b60405180910390f35b61020060048036038101906101fb919061256b565b610cbe565b60405161020d9190612893565b60405180910390f35b34801561022257600080fd5b5061022b610d3e565b005b34801561023957600080fd5b50610254600480360381019061024f919061256b565b610dd3565b6040516102619190612878565b60405180910390f35b34801561027657600080fd5b50610291600480360381019061028c919061256b565b610e83565b005b34801561029f57600080fd5b506102ba60048036038101906102b5919061256b565b610eb6565b6040516102c791906128ae565b60405180910390f35b3480156102dc57600080fd5b506102e5610f30565b6040516102f2919061290e565b60405180910390f35b34801561030757600080fd5b50610322600480360381019061031d919061256b565b610f36565b60405161032f91906128ae565b60405180910390f35b34801561034457600080fd5b5061034d610f66565b60405161035a919061290e565b60405180910390f35b34801561036f57600080fd5b5061038a600480360381019061038591906125d8565b610f6e565b005b34801561039857600080fd5b506103b360048036038101906103ae919061256b565b610feb565b6040516103c0919061290e565b60405180910390f35b3480156103d557600080fd5b506103f060048036038101906103eb919061256b565b611023565b005b3480156103fe57600080fd5b506104196004803603810190610414919061256b565b6110c6565b6040516104269190612856565b60405180910390f35b61044960048036038101906104449190612598565b611206565b005b61045361124d565b604051610460919061290e565b60405180910390f35b60025481565b6003818154811061047f57600080fd5b90600052602060002090600b02016000915090508060000160009054906101000a900463ffffffff16908060010154908060020160009054906101000a900461ffff16908060020160029054906101000a900461ffff16908060030154908060040160009054906101000a900460ff16908060050154908060060160009054906101000a900463ffffffff16908060060160049054906101000a900463ffffffff16905089565b61052e61247e565b60006003838154811061054457610543612f03565b5b90600052602060002090600b020190508060060160009054906101000a900463ffffffff1663ffffffff168160060160049054906101000a900463ffffffff1663ffffffff161461059457600080fd5b60008160060160009054906101000a900463ffffffff1663ffffffff1614156105bc57600080fd5b600060046000858152602001908152602001600020620f42400154905060006105e4856110c6565b905060008267ffffffffffffffff81111561060257610601612f32565b5b6040519080825280602002602001820160405280156106305781602001602082028036833780820191505090505b50905060005b83811015610712576106e085600901600085848151811061065a57610659612f03565b5b602002602001015173ffffffffffffffffffffffffffffffffffffffff1673ffffffffffffffffffffffffffffffffffffffff1681526020019081526020016000206000016004806020026040519081016040528092919082600480156106d6576020028201915b8154815260200190600101908083116106c2575b5050505050611536565b8282815181106106f3576106f2612f03565b5b602002602001018181525050808061070a90612dc3565b915050610636565b5061071b6124a0565b60008160006003811061073157610730612f03565b5b6020020181815250506000816001600381106107505761074f612f03565b5b60200201818152505060008160026003811061076f5761076e612f03565b5b60200201818152505061078061247e565b60005b85811015610ca95783818151811061079e5761079d612f03565b5b6020026020010151836000600381106107ba576107b9612f03565b5b60200201511015610a0c57826001600381106107d9576107d8612f03565b5b6020020151836000600381106107f2576107f1612f03565b5b60200201511161096957826002600381106108105761080f612f03565b5b60200201518360016003811061082957610828612f03565b5b6020020151116108ce578260016003811061084757610846612f03565b5b6020020151836002600381106108605761085f612f03565b5b6020020181815250508160016003811061087d5761087c612f03565b5b60200201518260026003811061089657610895612f03565b5b602002019073ffffffffffffffffffffffffffffffffffffffff16908173ffffffffffffffffffffffffffffffffffffffff16815250505b826001600381106108e2576108e1612f03565b5b6020020151836000600381106108fb576108fa612f03565b5b6020020181815250508160016003811061091857610917612f03565b5b60200201518260006003811061093157610930612f03565b5b602002019073ffffffffffffffffffffffffffffffffffffffff16908173ffffffffffffffffffffffffffffffffffffffff16815250505b83818151811061097c5761097b612f03565b5b60200260200101518360006003811061099857610997612f03565b5b6020020181815250508481815181106109b4576109b3612f03565b5b6020026020010151826000600381106109d0576109cf612f03565b5b602002019073ffffffffffffffffffffffffffffffffffffffff16908173ffffffffffffffffffffffffffffffffffffffff1681525050610c96565b838181518110610a1f57610a1e612f03565b5b602002602001015183600160038110610a3b57610a3a612f03565b5b60200201511015610bbb5782600260038110610a5a57610a59612f03565b5b602002015183600160038110610a7357610a72612f03565b5b602002015111610b185782600160038110610a9157610a90612f03565b5b602002015183600260038110610aaa57610aa9612f03565b5b60200201818152505081600160038110610ac757610ac6612f03565b5b602002015182600260038110610ae057610adf612f03565b5b602002019073ffffffffffffffffffffffffffffffffffffffff16908173ffffffffffffffffffffffffffffffffffffffff16815250505b838181518110610b2b57610b2a612f03565b5b602002602001015183600160038110610b4757610b46612f03565b5b602002018181525050848181518110610b6357610b62612f03565b5b602002602001015182600160038110610b7f57610b7e612f03565b5b602002019073ffffffffffffffffffffffffffffffffffffffff16908173ffffffffffffffffffffffffffffffffffffffff1681525050610c95565b838181518110610bce57610bcd612f03565b5b602002602001015183600260038110610bea57610be9612f03565b5b60200201511015610c9457838181518110610c0857610c07612f03565b5b602002602001015183600260038110610c2457610c23612f03565b5b602002018181525050848181518110610c4057610c3f612f03565b5b602002602001015182600260038110610c5c57610c5b612f03565b5b602002019073ffffffffffffffffffffffffffffffffffffffff16908173ffffffffffffffffffffffffffffffffffffffff16815250505b5b5b8080610ca190612dc3565b915050610783565b50809650505050505050919050565b60005481565b60008060038381548110610cd557610cd4612f03565b5b90600052602060002090600b0201905060008160070160003373ffffffffffffffffffffffffffffffffffffffff1673ffffffffffffffffffffffffffffffffffffffff1681526020019081526020016000209050610d358483836115c6565b92505050919050565b600560009054906101000a900473ffffffffffffffffffffffffffffffffffffffff1673ffffffffffffffffffffffffffffffffffffffff163373ffffffffffffffffffffffffffffffffffffffff1614610d9857600080fd5b600560009054906101000a900473ffffffffffffffffffffffffffffffffffffffff1673ffffffffffffffffffffffffffffffffffffffff16ff5b610ddb6124c2565b60038281548110610def57610dee612f03565b5b90600052602060002090600b020160090160003373ffffffffffffffffffffffffffffffffffffffff1673ffffffffffffffffffffffffffffffffffffffff168152602001908152602001600020600001600480602002604051908101604052809291908260048015610e77576020028201915b815481526020019060010190808311610e63575b50505050509050919050565b600060038281548110610e9957610e98612f03565b5b90600052602060002090600b02019050610eb2816117a8565b5050565b60008060038381548110610ecd57610ecc612f03565b5b90600052602060002090600b0201905060008160080160003373ffffffffffffffffffffffffffffffffffffffff1673ffffffffffffffffffffffffffffffffffffffff1681526020019081526020016000209050806001015492505050919050565b60015481565b600081604051602001610f4991906127e3565b604051602081830303815290604052805190602001209050919050565b600047905090565b600060038381548110610f8457610f83612f03565b5b90600052602060002090600b0201905060008160080160003373ffffffffffffffffffffffffffffffffffffffff1673ffffffffffffffffffffffffffffffffffffffff1681526020019081526020016000209050610fe5848484846119a5565b50505050565b6000806003838154811061100257611001612f03565b5b90600052602060002090600b0201905061101b81611b25565b915050919050565b60006003828154811061103957611038612f03565b5b90600052602060002090600b0201905060008160080160003373ffffffffffffffffffffffffffffffffffffffff1673ffffffffffffffffffffffffffffffffffffffff1681526020019081526020016000209050600061109984610526565b90506110a6838383611b92565b8360010160008282546110b99190612d0d565b9250508190555050505050565b6060600060046000848152602001908152602001600020620f4240015467ffffffffffffffff8111156110fc576110fb612f32565b5b60405190808252806020026020018201604052801561112a5781602001602082028036833780820191505090505b50905060005b60046000858152602001908152602001600020620f424001548110156111fc576004600085815260200190815260200160002060000181620f4240811061117a57611179612f03565b5b0160009054906101000a900473ffffffffffffffffffffffffffffffffffffffff168282815181106111af576111ae612f03565b5b602002602001019073ffffffffffffffffffffffffffffffffffffffff16908173ffffffffffffffffffffffffffffffffffffffff168152505080806111f490612dc3565b915050611130565b5080915050919050565b80600081141561121557600080fd5b60006003848154811061122b5761122a612f03565b5b90600052602060002090600b0201905061124784843484611cc2565b50505050565b6000346000811161125d57600080fd5b600380549050915060036001816001815401808255809150500390600052602060002090505060006003838154811061129957611298612f03565b5b90600052602060002090600b020190506000808154809291906112bb90612dc3565b9190505550600060046000858152602001908152602001600020620f424001819055506000816001018190555060c8436112f59190612ad7565b8160000160006101000a81548163ffffffff021916908363ffffffff16021790555060c88043444560405160200161132f939291906127fe565b6040516020818303038152906040528051906020012060001c6113529190612e43565b61135c9190612a49565b8160020160006101000a81548161ffff021916908361ffff16021790555060c8434442604051602001611391939291906127fe565b6040516020818303038152906040528051906020012060001c6113b49190612e43565b8160020160026101000a81548161ffff021916908361ffff16021790555034816005018190555060405180604001604052803373ffffffffffffffffffffffffffffffffffffffff168152602001348152508160070160003373ffffffffffffffffffffffffffffffffffffffff1673ffffffffffffffffffffffffffffffffffffffff16815260200190815260200160002060008201518160000160006101000a81548173ffffffffffffffffffffffffffffffffffffffff021916908373ffffffffffffffffffffffffffffffffffffffff160217905550602082015181600101559050508060000160009054906101000a900463ffffffff1663ffffffff163373ffffffffffffffffffffffffffffffffffffffff16847fee1c80b979ed7ad128c67048bfad3d6c0615d57118e1a65bf7d36868734778b560008560020160009054906101000a900461ffff168660020160029054906101000a900461ffff16600060405161152994939291906128c9565b60405180910390a4505090565b6000808260036004811061154d5761154c612f03565b5b60200201518360026004811061156657611565612f03565b5b60200201518460016004811061157f5761157e612f03565b5b60200201518560006004811061159857611597612f03565b5b60200201516115a79190612a81565b6115b19190612a81565b6115bb9190612a81565b905080915050919050565b60008260000160009054906101000a900463ffffffff1663ffffffff168360020160029054906101000a900461ffff168061ffff16826116069190612d0d565b43111561161257600080fd5b8360000160009054906101000a900473ffffffffffffffffffffffffffffffffffffffff16600073ffffffffffffffffffffffffffffffffffffffff168173ffffffffffffffffffffffffffffffffffffffff161461167057600080fd5b348660050160008282546116849190612a81565b9250508190555060405180604001604052803373ffffffffffffffffffffffffffffffffffffffff168152602001348152508660070160003373ffffffffffffffffffffffffffffffffffffffff1673ffffffffffffffffffffffffffffffffffffffff16815260200190815260200160002060008201518160000160006101000a81548173ffffffffffffffffffffffffffffffffffffffff021916908373ffffffffffffffffffffffffffffffffffffffff160217905550602082015181600101559050503373ffffffffffffffffffffffffffffffffffffffff16877f23dccbd65d14a6f1eca0cb7a8c085ea070cc1dc36fde87272dcd7b2e0c4748b234604051611792919061290e565b60405180910390a3600193505050509392505050565b8060000160009054906101000a900463ffffffff1663ffffffff16804310156117d057600080fd5b8160060160009054906101000a900463ffffffff168260060160049054906101000a900463ffffffff168063ffffffff168263ffffffff1614801561181c575060008263ffffffff1614155b1561182657600080fd5b8360070160003373ffffffffffffffffffffffffffffffffffffffff1673ffffffffffffffffffffffffffffffffffffffff16815260200190815260200160002060000160009054906101000a900473ffffffffffffffffffffffffffffffffffffffff163373ffffffffffffffffffffffffffffffffffffffff168173ffffffffffffffffffffffffffffffffffffffff16146118c357600080fd5b60008560070160003373ffffffffffffffffffffffffffffffffffffffff1673ffffffffffffffffffffffffffffffffffffffff16815260200190815260200160002060010154905060008660070160003373ffffffffffffffffffffffffffffffffffffffff1673ffffffffffffffffffffffffffffffffffffffff168152602001908152602001600020600101819055503373ffffffffffffffffffffffffffffffffffffffff166108fc829081150290604051600060405180830381858888f1935050505015801561199c573d6000803e3d6000fd5b50505050505050565b8160000160009054906101000a900463ffffffff1663ffffffff168260020160029054906101000a900461ffff168061ffff16826119e39190612d0d565b43116119ee57600080fd5b8143106119fa57600080fd5b8483600101548082604051602001611a1291906127e3565b6040516020818303038152906040528051906020012014611a3257600080fd5b8460030160009054906101000a900460ff168015611a4f57600080fd5b87866000018190555060018660030160006101000a81548160ff02191690831515021790555086600601600481819054906101000a900463ffffffff1680929190611a9990612e0c565b91906101000a81548163ffffffff021916908363ffffffff16021790555050856000015487600301541887600301819055503373ffffffffffffffffffffffffffffffffffffffff16897f9141bfaedbc77aa7b8d9c989cd81909d95bb1677e556e34cfd45e50e0bea29678a604051611b12919061290e565b60405180910390a3505050505050505050565b60008160060160009054906101000a900463ffffffff1663ffffffff168260060160049054906101000a900463ffffffff1663ffffffff161415611b8c5760018260040160006101000a81548160ff02191690831515021790555081600301549050611b8d565b5b919050565b60008360000160009054906101000a900463ffffffff1663ffffffff1680431015611bbc57600080fd5b8360030160019054906101000a900460ff168015611bd957600080fd5b60008660060160049054906101000a900463ffffffff1663ffffffff161115611ca4578460030160009054906101000a900460ff1615611c9f576000805b6003811015611c8b573373ffffffffffffffffffffffffffffffffffffffff16868260038110611c4a57611c49612f03565b5b602002015173ffffffffffffffffffffffffffffffffffffffff161415611c7857611c758882612145565b91505b8080611c8390612dc3565b915050611c17565b50611c9681876121f8565b80935050611cb9565b611cb8565b611caf6000866121f8565b60009250611cb9565b5b50509392505050565b813373ffffffffffffffffffffffffffffffffffffffff1631811115611ce757600080fd5b82600154341115611cf757600080fd5b8260000160009054906101000a900463ffffffff1663ffffffff168360020160009054906101000a900461ffff168460020160029054906101000a900461ffff168161ffff1683611d489190612d0d565b431015611d5457600080fd5b8061ffff1683611d649190612d0d565b431115611d7057600080fd5b8560080160003373ffffffffffffffffffffffffffffffffffffffff1673ffffffffffffffffffffffffffffffffffffffff1681526020019081526020016000206001015460008114611dc257600080fd5b86600a0160008a815260200190815260200160002060009054906101000a900460ff1615611def57600080fd5b6000611dfa8a612269565b90506040518060a00160405280600081526020018b815260200160008152602001600015158152602001600015158152508860080160003373ffffffffffffffffffffffffffffffffffffffff1673ffffffffffffffffffffffffffffffffffffffff16815260200190815260200160002060008201518160000155602082015181600101556040820151816002015560608201518160030160006101000a81548160ff02191690831515021790555060808201518160030160016101000a81548160ff02191690831515021790555090505060405180606001604052808281526020018a81526020013373ffffffffffffffffffffffffffffffffffffffff168152508860090160003373ffffffffffffffffffffffffffffffffffffffff1673ffffffffffffffffffffffffffffffffffffffff168152602001908152602001600020600082015181600001906004611f569291906124e4565b506020820151816004015560408201518160050160006101000a81548173ffffffffffffffffffffffffffffffffffffffff021916908373ffffffffffffffffffffffffffffffffffffffff16021790555090505087600601600081819054906101000a900463ffffffff1680929190611fcf90612e0c565b91906101000a81548163ffffffff021916908363ffffffff16021790555050888860010160008282546120029190612a81565b92505081905550600188600a0160008c815260200190815260200160002060006101000a81548160ff02191690831515021790555033600460008d8152602001908152602001600020600001600460008e8152602001908152602001600020620f42400154620f4240811061207a57612079612f03565b5b0160006101000a81548173ffffffffffffffffffffffffffffffffffffffff021916908373ffffffffffffffffffffffffffffffffffffffff1602179055506001600460008d8152602001908152602001600020620f42400160008282546120e29190612a81565b925050819055503373ffffffffffffffffffffffffffffffffffffffff168b7f918c00c65dd2a8dee4c6985d1d67f04aa8cd2c93e8d427d398a90444c7f7c75e8c60405161213091906128ae565b60405180910390a35050505050505050505050565b60008260060160049054906101000a900463ffffffff1663ffffffff168360060160009054906101000a900463ffffffff1663ffffffff1611156121cf578260060160049054906101000a900463ffffffff1663ffffffff166121a78461233a565b83600481106121b9576121b8612f03565b5b60200201516121c89190612b11565b90506121f2565b6121d88361233a565b82600481106121ea576121e9612f03565b5b602002015190505b92915050565b81816002018190555060018160030160016101000a81548160ff0219169083151502179055503373ffffffffffffffffffffffffffffffffffffffff166108fc839081150290604051600060405180830381858888f19350505050158015612264573d6000803e3d6000fd5b505050565b6122716124c2565b6122796124c2565b6000612284846123e7565b90506009816122939190612e74565b826000600481106122a7576122a6612f03565b5b6020020181815250506063816122bd9190612e74565b826001600481106122d1576122d0612f03565b5b6020020181815250506103e7816122e89190612e74565b826002600481106122fc576122fb612f03565b5b60200201818152505061270f816123139190612e74565b8260036004811061232757612326612f03565b5b6020020181815250508192505050919050565b6123426124c2565b61234a6124c2565b60018360010154901c8160006004811061236757612366612f03565b5b60200201818152505060028360010154901c8160016004811061238d5761238c612f03565b5b60200201818152505060028360010154901c816002600481106123b3576123b2612f03565b5b6020020181815250508260010154816003600481106123d5576123d4612f03565b5b60200201818152505080915050919050565b60008060005b602060ff16811015612474576001816124069190612a81565b602060ff166124159190612d0d565b60086124219190612cb3565b600261242d9190612b95565b8482602081106124405761243f612f03565b5b1a60f81b60f81c60ff166124549190612cb3565b8261245f9190612a81565b9150808061246c90612dc3565b9150506123ed565b5080915050919050565b6040518060600160405280600390602082028036833780820191505090505090565b6040518060600160405280600390602082028036833780820191505090505090565b6040518060800160405280600490602082028036833780820191505090505090565b8260048101928215612513579160200282015b828111156125125782518255916020019190600101906124f7565b5b5090506125209190612524565b5090565b5b8082111561253d576000816000905550600101612525565b5090565b60008135905061255081612f73565b92915050565b60008135905061256581612f8a565b92915050565b60006020828403121561258157612580612f61565b5b600061258f84828501612556565b91505092915050565b600080604083850312156125af576125ae612f61565b5b60006125bd85828601612556565b92505060206125ce85828601612541565b9150509250929050565b600080604083850312156125ef576125ee612f61565b5b60006125fd85828601612556565b925050602061260e85828601612556565b9150509250929050565b60006126248383612648565b60208301905092915050565b600061263c838361279f565b60208301905092915050565b61265181612d41565b82525050565b612660816129da565b61266a8184612a22565b9250612675826129b6565b8060005b838110156126a657815161268d8782612618565b9650612698836129fb565b925050600181019050612679565b505050505050565b60006126b9826129e5565b6126c38185612a2d565b93506126ce836129c0565b8060005b838110156126ff5781516126e68882612618565b97506126f183612a08565b9250506001810190506126d2565b5085935050505092915050565b612715816129f0565b61271f8184612a3e565b925061272a826129d0565b8060005b8381101561275b5781516127428782612630565b965061274d83612a15565b92505060018101905061272e565b505050505050565b61276c81612d53565b82525050565b61277b81612d5f565b82525050565b61278a81612db1565b82525050565b61279981612d69565b82525050565b6127a881612d97565b82525050565b6127b781612d97565b82525050565b6127ce6127c982612d97565b612e39565b82525050565b6127dd81612da1565b82525050565b60006127ef82846127bd565b60208201915081905092915050565b600061280a82866127bd565b60208201915061281a82856127bd565b60208201915061282a82846127bd565b602082019150819050949350505050565b60006060820190506128506000830184612657565b92915050565b6000602082019050818103600083015261287081846126ae565b905092915050565b600060808201905061288d600083018461270c565b92915050565b60006020820190506128a86000830184612763565b92915050565b60006020820190506128c36000830184612772565b92915050565b60006080820190506128de6000830187612781565b6128eb6020830186612790565b6128f86040830185612790565b6129056060830184612781565b95945050505050565b600060208201905061292360008301846127ae565b92915050565b60006101208201905061293f600083018c6127d4565b61294c602083018b6127ae565b612959604083018a612790565b6129666060830189612790565b61297360808301886127ae565b61298060a0830187612763565b61298d60c08301866127ae565b61299a60e08301856127d4565b6129a86101008301846127d4565b9a9950505050505050505050565b6000819050919050565b6000819050602082019050919050565b6000819050919050565b600060039050919050565b600081519050919050565b600060049050919050565b6000602082019050919050565b6000602082019050919050565b6000602082019050919050565b600081905092915050565b600082825260208201905092915050565b600081905092915050565b6000612a5482612d69565b9150612a5f83612d69565b92508261ffff03821115612a7657612a75612ea5565b5b828201905092915050565b6000612a8c82612d97565b9150612a9783612d97565b9250827fffffffffffffffffffffffffffffffffffffffffffffffffffffffffffffffff03821115612acc57612acb612ea5565b5b828201905092915050565b6000612ae282612da1565b9150612aed83612da1565b92508263ffffffff03821115612b0657612b05612ea5565b5b828201905092915050565b6000612b1c82612d97565b9150612b2783612d97565b925082612b3757612b36612ed4565b5b828204905092915050565b6000808291508390505b6001851115612b8c57808604811115612b6857612b67612ea5565b5b6001851615612b775780820291505b8081029050612b8585612f66565b9450612b4c565b94509492505050565b6000612ba082612d97565b9150612bab83612d97565b9250612bd87fffffffffffffffffffffffffffffffffffffffffffffffffffffffffffffffff8484612be0565b905092915050565b600082612bf05760019050612cac565b81612bfe5760009050612cac565b8160018114612c145760028114612c1e57612c4d565b6001915050612cac565b60ff841115612c3057612c2f612ea5565b5b8360020a915084821115612c4757612c46612ea5565b5b50612cac565b5060208310610133831016604e8410600b8410161715612c825782820a905083811115612c7d57612c7c612ea5565b5b612cac565b612c8f8484846001612b42565b92509050818404811115612ca657612ca5612ea5565b5b81810290505b9392505050565b6000612cbe82612d97565b9150612cc983612d97565b9250817fffffffffffffffffffffffffffffffffffffffffffffffffffffffffffffffff0483118215151615612d0257612d01612ea5565b5b828202905092915050565b6000612d1882612d97565b9150612d2383612d97565b925082821015612d3657612d35612ea5565b5b828203905092915050565b6000612d4c82612d77565b9050919050565b60008115159050919050565b6000819050919050565b600061ffff82169050919050565b600073ffffffffffffffffffffffffffffffffffffffff82169050919050565b6000819050919050565b600063ffffffff82169050919050565b6000612dbc82612d97565b9050919050565b6000612dce82612d97565b91507fffffffffffffffffffffffffffffffffffffffffffffffffffffffffffffffff821415612e0157612e00612ea5565b5b600182019050919050565b6000612e1782612da1565b915063ffffffff821415612e2e57612e2d612ea5565b5b600182019050919050565b6000819050919050565b6000612e4e82612d69565b9150612e5983612d69565b925082612e6957612e68612ed4565b5b828206905092915050565b6000612e7f82612d97565b9150612e8a83612d97565b925082612e9a57612e99612ed4565b5b828206905092915050565b7f4e487b7100000000000000000000000000000000000000000000000000000000600052601160045260246000fd5b7f4e487b7100000000000000000000000000000000000000000000000000000000600052601260045260246000fd5b7f4e487b7100000000000000000000000000000000000000000000000000000000600052603260045260246000fd5b7f4e487b7100000000000000000000000000000000000000000000000000000000600052604160045260246000fd5b600080fd5b60008160011c9050919050565b612f7c81612d5f565b8114612f8757600080fd5b50565b612f9381612d97565b8114612f9e57600080fd5b5056fea26469706673582212205a985261d76eee5c56714ab40379276473ba85c066eaa3389951ff7911e3a53264736f6c63430008070033",
  "immutableReferences": {},
  "source": "// SPDX-License-Identifier: MIT\r\n\r\npragma solidity >=0.4.24 <=0.8.7;\r\n\r\ncontract Casino {\r\n    \r\n    struct Participant {\r\n        uint256 secret;\r\n        bytes32 commitment;\r\n        uint256 reward;\r\n        bool revealed;\r\n        bool rewarded;\r\n    }\r\n    \r\n    struct Player {\r\n        uint [4] bettingNumber;\r\n        uint256 bettingAmount;\r\n        address playerAddr;\r\n    }\r\n    \r\n    struct Consumer {\r\n        address consumerAddr;\r\n        uint256 bountyPot;\r\n    }\r\n    \r\n    struct Campaign {\r\n        uint32 blockNum;\r\n        uint256 deposit;\r\n        uint16 commitBalkline;\r\n        uint16 commitDeadline;\r\n        \r\n        uint256 random;\r\n        bool settled;\r\n        uint256 bountyPot;\r\n        uint32 commitNum;\r\n        uint32 revealsNum;\r\n        \r\n        mapping (address => Consumer) consumers;\r\n        mapping (address => Participant) participants;\r\n        mapping (address => Player) players;\r\n        mapping (bytes32 => bool) commitments;\r\n    }\r\n\r\n    struct playerAddress {\r\n        address[1000000] playerList;\r\n        uint256 counter;\r\n    }\r\n    \r\n    uint256 public numCampaigns;\r\n    uint256 public maxBetting;\r\n    uint256 public maximumPlayer;\r\n    Campaign[] public campaigns;\r\n    mapping(uint256 => playerAddress) internal playersMap;\r\n    address payable founder;\r\n    \r\n    modifier blankAddress(address n) { if (n != address(0)) revert(); _; }\r\n    \r\n    modifier moreThanZero(uint256 _deposit) {if (_deposit <= 0) revert(); _; }\r\n    \r\n    modifier notBeBlank(bytes32 _s) { if (_s == \"\") revert(); _; }\r\n    \r\n    modifier beBlank(bytes32 _s) { if (_s != \"\") revert(); _; }\r\n    \r\n    modifier beFalse(bool _t) { if (_t) revert(); _; }\r\n    \r\n    constructor(uint256 _maxBetting, uint256 _maximumPlayer) public payable{\r\n        founder = payable(msg.sender);\r\n        maxBetting = _maxBetting;\r\n        maximumPlayer = _maximumPlayer;\r\n    }\r\n    \r\n    event LogCampaignAdded(uint256 indexed campaignID,\r\n                           address indexed from,\r\n                           uint32 indexed blockNum,\r\n                           uint256 deposit,\r\n                           uint16 commitBalkline,\r\n                           uint16 commitDeadline,\r\n                           uint256 bountyPot);\r\n                           \r\n    modifier timeLineCheck(uint32 _blockNum, uint16 _commitBalkline, uint16 _commitDeadline) {\r\n        if(block.number >= _blockNum) revert();\r\n        if(_commitBalkline <= 0) revert();\r\n        if(_commitDeadline <= 0) revert();\r\n        if(_commitDeadline >= _commitBalkline) revert();\r\n        if(block.number >= _blockNum - _commitBalkline) revert();\r\n        \r\n        _;\r\n    }\r\n    \r\n    /*\r\n     struct Campaign {\r\n        uint32 blockNum;\r\n        uint96 deposit;\r\n        uint16 commitBalkline;\r\n        uint16 commitDeadline;\r\n        \r\n        uint256 random;\r\n        bool settled;\r\n        uint256 bountyPot;\r\n        uint32 commitNum;\r\n        uint32 revealsNum;\r\n        \r\n        mapping (address => Consumer) consumers;\r\n        mapping (address => Participant) participants;\r\n        mapping (bytes32 => bool) commitments;\r\n    }\r\n    \r\n    */\r\n    \r\n    function newCampaignAuto() payable external \r\n        moreThanZero(msg.value) \r\n    returns(uint256 _campaignID) {\r\n        _campaignID = campaigns.length;\r\n        campaigns.push();\r\n        Campaign storage c = campaigns[_campaignID];\r\n        numCampaigns++;\r\n         \r\n        playersMap[_campaignID].counter = 0;\r\n        c.deposit  = 0;\r\n        c.blockNum = uint32(block.number) + 200;\r\n        c.commitBalkline = uint16(uint(keccak256(abi.encodePacked(block.number, block.difficulty, block.gaslimit)))) % 200 + 200;\r\n        c.commitDeadline = uint16(uint(keccak256(abi.encodePacked(block.number, block.difficulty, block.timestamp)))) % 200;\r\n        c.bountyPot = msg.value;\r\n        c.consumers[msg.sender] = Consumer(msg.sender, msg.value); \r\n        \r\n        emit LogCampaignAdded(_campaignID, msg.sender, c.blockNum, 0, c.commitBalkline, c.commitDeadline, 0);\r\n        \r\n        return _campaignID;\r\n    }\r\n    \r\n    event LogFollow(uint256 indexed CampaignId, address indexed from, uint256 bountyPot);\r\n    \r\n    function follow(uint256 _campaignID) external payable returns (bool) {\r\n        Campaign storage c = campaigns[_campaignID];\r\n        Consumer storage consumer = c.consumers[msg.sender];\r\n        return followCampaign(_campaignID, c, consumer);\r\n    }\r\n    \r\n    modifier checkFollowPhase(uint256 _blockNum, uint16 _commitDeadline) {\r\n        if(block.number > _blockNum - _commitDeadline) revert();\r\n        _;\r\n    }\r\n    \r\n    function followCampaign(\r\n        uint256 _campaignID,\r\n        Campaign storage c,\r\n        Consumer storage consumer\r\n    ) \r\n    checkFollowPhase(c.blockNum, c.commitDeadline) \r\n    blankAddress(consumer.consumerAddr)\r\n    internal returns(bool) {\r\n        c.bountyPot += msg.value;\r\n        c.consumers[msg.sender] = Consumer(msg.sender, msg.value);\r\n        \r\n        emit LogFollow(_campaignID, msg.sender, msg.value);\r\n        \r\n        return true;\r\n    }\r\n\r\n    event LogCommit(uint256 indexed CampaignId, address indexed from, bytes32 commitment);\r\n    \r\n    function commit(uint256 _campaignID, bytes32 _hs) notBeBlank(_hs) external payable {\r\n        Campaign storage c = campaigns[_campaignID];\r\n        commitmentCampaign(_campaignID, _hs, msg.value, c);\r\n    }\r\n\r\n    modifier checkMaximum(uint256 _deposit) { if (msg.value > maxBetting) revert(); _; }\r\n    \r\n    modifier checkCommitPhase(uint256 _blockNum, uint16 _commitBalkline, uint16 _commitDeadline) {\r\n        if (block.number < _blockNum - _commitBalkline) revert();\r\n        if (block.number > _blockNum - _commitDeadline) revert();\r\n        _;\r\n    }\r\n    \r\n\r\n    function getCommitmentNumber(uint256 _campaignID) public view returns (uint [4] memory){\r\n        return campaigns[_campaignID].players[msg.sender].bettingNumber;\r\n    }\r\n    \r\n    modifier checkPlayer(uint256 _campaignID) {\r\n        address[] memory list = new address[](playersMap[_campaignID].counter);\r\n        bool check = false;\r\n        \r\n        for (uint i=0; i < list.length; i++) {\r\n            if (list[i] == msg.sender) check = true; \r\n        }\r\n        \r\n        if (!check) { revert(); _; } \r\n    }\r\n    \r\n    modifier checkBetting(uint256 betting) { if(betting > msg.sender.balance) revert(); _; }\r\n    \r\n    function commitmentCampaign(\r\n        uint256 _campaignID,\r\n        bytes32 _hs,\r\n        uint256 betting,\r\n        Campaign storage c\r\n    )\r\n    checkBetting(betting)\r\n    checkMaximum(betting)\r\n    checkCommitPhase(c.blockNum, c.commitBalkline, c.commitDeadline)\r\n    beBlank(c.participants[msg.sender].commitment) internal {\r\n          if(c.commitments[_hs]) {\r\n              revert();\r\n          } else  {\r\n              \r\n              uint[4] memory arrayBettingNumber = commitmentsNumber(_hs);\r\n              \r\n              c.participants[msg.sender] = Participant(0, _hs, 0, false, false);\r\n              c.players[msg.sender] = Player(arrayBettingNumber, betting, msg.sender);\r\n              c.commitNum++;\r\n              c.deposit += betting;\r\n              c.commitments[_hs] = true;\r\n              \r\n              playersMap[_campaignID].playerList[playersMap[_campaignID].counter] = msg.sender;\r\n              playersMap[_campaignID].counter += 1;\r\n              \r\n              emit LogCommit(_campaignID, msg.sender, _hs);\r\n          }\r\n      }\r\n      \r\n      \r\n    function bytesToUint(bytes32 b) internal pure returns (uint){\r\n        uint number;\r\n        for(uint i=0;i<b.length;i++){\r\n            number = number + uint(uint8(b[i]))*(2**(8*(b.length-(i+1))));\r\n        }\r\n        return number;\r\n    }\r\n    \r\n    function commitmentsNumber(bytes32 _hs) internal pure returns (uint[4] memory){\r\n        \r\n        uint[4] memory temp;\r\n        uint integer = bytesToUint(_hs);\r\n        temp[0] = integer%9;\r\n        temp[1] = integer%99;\r\n        temp[2] = integer%999;\r\n        temp[3] = integer%9999;\r\n        \r\n        return temp;\r\n    }\r\n    \r\n    function getCommitment(uint256 _campaignID) external view returns(bytes32) {\r\n        Campaign storage c = campaigns[_campaignID];\r\n        Participant storage p = c.participants[msg.sender];\r\n        return p.commitment;\r\n    }\r\n    \r\n    function shaCommit(uint256 _s) public pure returns (bytes32) {\r\n        return keccak256(abi.encodePacked(_s));\r\n    }\r\n    \r\n    function reveal(uint256 _campaignID, uint256 _s) external {\r\n        Campaign storage c = campaigns[_campaignID];\r\n        Participant storage p = c.participants[msg.sender];\r\n        revealCampaign(_campaignID, _s, c, p);\r\n    }\r\n    \r\n    event LogReveal(uint256 indexed CampaignId, address indexed from, uint256 secret);\r\n    \r\n    modifier checkRevealPhase(uint256 _blockNum, uint16 _commitDeadline) {\r\n        if (block.number <= _blockNum - _commitDeadline) revert();\r\n        if (block.number >= _blockNum) revert();\r\n        _;\r\n    }\r\n    \r\n    modifier checkSecret(uint256 _s, bytes32 _commitment) {\r\n        if (keccak256(abi.encodePacked(_s)) != _commitment) revert();\r\n        _;\r\n    }\r\n    \r\n    function revealCampaign(\r\n        uint256 _campaignID,\r\n        uint256 _s,\r\n        Campaign storage c,\r\n        Participant storage p\r\n    )   \r\n    checkRevealPhase(c.blockNum, c.commitDeadline)\r\n    checkSecret(_s, p.commitment)\r\n    beFalse(p.revealed) internal {\r\n        p.secret= _s;\r\n        p.revealed = true;\r\n        c.revealsNum++;\r\n        c.random = c.random ^ p.secret;\r\n        emit LogReveal(_campaignID, msg.sender, _s);\r\n    }\r\n    \r\n    modifier bountyPhase(uint256 _bnum){if (block.number < _bnum) revert(); _;}\r\n\r\n    function getRandom(uint256 _campaignID) external returns (uint256) {\r\n        Campaign storage c = campaigns[_campaignID];\r\n        return returnRandom(c);\r\n    }\r\n\r\n    function returnRandom(Campaign storage c) internal //bountyPhase(c.blockNum) \r\n    returns (uint256) {\r\n        if (c.revealsNum == c.commitNum) {\r\n            c.settled = true;\r\n            return c.random;\r\n        }\r\n    }\r\n    \r\n    //------------------------------------------------------------------------------------------------------------------------------\r\n    \r\n    function getMyBounty(uint256 _campaignID) external {\r\n        Campaign storage c = campaigns[_campaignID];\r\n        Participant storage p = c.participants[msg.sender];\r\n        address[3] memory w = checkWinner(_campaignID);\r\n        c.deposit -= transferBounty(c, p, w);\r\n    }\r\n\r\n    function transferBounty(\r\n        Campaign storage c,\r\n        Participant storage p,\r\n        address[3] memory w\r\n        ) \r\n        bountyPhase(c.blockNum)\r\n        beFalse(p.rewarded) internal returns (uint256) {\r\n        if (c.revealsNum > 0) {\r\n            if (p.revealed) {\r\n                uint256 share = 0;\r\n                for(uint i=0; i < 3; i++) {\r\n                    if (w[i] == msg.sender) { share = calculateShare(c, i); }\r\n                }\r\n                \r\n                returnReward(share, p);\r\n                \r\n                return share;\r\n            }\r\n        // Nobody reveals\r\n        } else {\r\n            returnReward(0, p);\r\n            \r\n            return 0;\r\n        }\r\n    }\r\n\r\n    function calculateShare(Campaign storage c, uint256 winner) internal view returns (uint256 _share) {\r\n        // Someone does not reveal. Campaign fails.\r\n        \r\n        if (c.commitNum > c.revealsNum) {\r\n            _share = fines(c)[winner] / c.revealsNum;\r\n            // Campaign succeeds.\r\n        } else {\r\n            _share = fines(c)[winner];\r\n        }\r\n        \r\n    }\r\n\r\n    function returnReward(\r\n        uint256 _share,\r\n        Participant storage p\r\n    ) internal {\r\n        p.reward = _share;\r\n        p.rewarded = true;\r\n        payable(msg.sender).transfer(_share);\r\n    }\r\n    \r\n    function getThisBalance() public view returns(uint256) {\r\n        return address(this).balance;\r\n    }\r\n    \r\n    function fines(Campaign storage c) internal view returns (uint[4] memory) {\r\n        uint[4] memory temp;\r\n        \r\n        temp[0] = c.deposit >> 1;\r\n        temp[1] = c.deposit >> 2;\r\n        temp[2] = c.deposit >> 2;\r\n        temp[3] = c.deposit;\r\n        \r\n        return temp;\r\n    }\r\n\r\n    // If the campaign fails, the consumers can get back the bounty.\r\n    function refundBounty(uint256 _campaignID) external {\r\n        Campaign storage c = campaigns[_campaignID];\r\n        returnBounty(c);\r\n    }\r\n\r\n    modifier campaignFailed(uint32 _commitNum, uint32 _revealsNum) {\r\n        if (_commitNum == _revealsNum && _commitNum != 0) revert();\r\n        _;\r\n    }\r\n\r\n    modifier beConsumer(address _caddr) {\r\n        if (_caddr != msg.sender) revert();\r\n        _;\r\n    }\r\n\r\n    function returnBounty(Campaign storage c)\r\n        internal\r\n        bountyPhase(c.blockNum)\r\n        campaignFailed(c.commitNum, c.revealsNum)\r\n        beConsumer(c.consumers[msg.sender].consumerAddr) \r\n    {\r\n        uint256 bountypot = c.consumers[msg.sender].bountyPot;\r\n        c.consumers[msg.sender].bountyPot = 0;\r\n        payable(msg.sender).transfer(bountypot);\r\n    }\r\n    \r\n    \r\n    function computeToUint(uint[4] memory bettingNumber) internal pure returns (uint256) {\r\n        uint256 temp = bettingNumber[0] + bettingNumber[1] + bettingNumber[2] + bettingNumber[3];\r\n        return temp;\r\n    }\r\n    \r\n    \r\n    function watchPlayer(uint256 _campaignID) public view returns (address[] memory) {\r\n        address[] memory temp = new address[](playersMap[_campaignID].counter);\r\n        \r\n        for(uint256 i = 0; i < playersMap[_campaignID].counter; i++) {\r\n            temp[i] = playersMap[_campaignID].playerList[i];\r\n        }\r\n        return temp;\r\n    }\r\n    \r\n    function checkWinner(uint256 _campaignID) public view returns (address[3] memory) {\r\n        \r\n        Campaign storage c = campaigns[_campaignID];\r\n        \r\n        if (c.revealsNum != c.commitNum) {revert();}\r\n        if (c.commitNum == 0) {revert();}\r\n        \r\n        uint256 counter = playersMap[_campaignID].counter;\r\n        \r\n        address[] memory playerList = watchPlayer(_campaignID);\r\n        uint256 [] memory bettingNumberList = new uint256[](counter);\r\n        \r\n        for(uint i = 0; i < counter; i++) {\r\n            bettingNumberList[i] = computeToUint(c.players[playerList[i]].bettingNumber);\r\n        }\r\n        \r\n        \r\n        //find 1st, 2nd, 3rd biggest winner\r\n        uint256 [3] memory numberWinner;\r\n        numberWinner[0] = 0;\r\n        numberWinner[1] = 0;\r\n        numberWinner[2] = 0;\r\n        \r\n        address [3] memory addressWinner;\r\n        \r\n        for(uint i = 0; i < counter; i++) {\r\n            if (numberWinner[0] < bettingNumberList[i]) {\r\n                \r\n                if(numberWinner[0] <= numberWinner[1]) {\r\n                    \r\n                    if(numberWinner[1] <= numberWinner[2]) {\r\n                        numberWinner[2] = numberWinner[1];\r\n                        addressWinner[2] = addressWinner[1];\r\n                    } \r\n                    numberWinner[0] = numberWinner[1];\r\n                    addressWinner[0] = addressWinner[1];\r\n                }\r\n                \r\n                numberWinner[0] = bettingNumberList[i];\r\n                addressWinner[0] = playerList[i];\r\n                \r\n            } else if (numberWinner[1] < bettingNumberList[i]) {\r\n                \r\n                if(numberWinner[1] <= numberWinner[2]) {\r\n                    numberWinner[2] = numberWinner[1];\r\n                    addressWinner[2] = addressWinner[1];\r\n                }\r\n                \r\n                numberWinner[1] = bettingNumberList[i];\r\n                addressWinner[1] = playerList[i];\r\n                \r\n            } else if (numberWinner[2] < bettingNumberList[i]) {\r\n                numberWinner[2] = bettingNumberList[i];\r\n                addressWinner[2] = playerList[i];\r\n            }\r\n        }\r\n        \r\n        return addressWinner;\r\n    }\r\n    \r\n    function kill() public {\r\n        require(msg.sender == founder);\r\n        selfdestruct(founder);\r\n    }\r\n}",
  "sourcePath": "C:\\Users\\kkh54\\randaoCasino\\contracts\\randao-casino.sol",
  "compiler": {
    "name": "solc",
    "version": "0.8.7+commit.e28d00a7.Emscripten.clang"
  },
  "schemaVersion": "3.4.3",
  "updatedAt": "2021-08-20T01:22:25.426Z",
  "networkType": "ethereum",
  "devdoc": {
    "kind": "dev",
    "methods": {},
    "version": 1
  },
  "userdoc": {
    "kind": "user",
    "methods": {},
    "version": 1
  }
}