{
  "contractName": "Casino",
  "abi": [
    {
      "inputs": [
        {
          "internalType": "uint256",
          "name": "_maxBetting",
          "type": "uint256"
        },
        {
          "internalType": "uint256",
          "name": "_maximumPlayer",
          "type": "uint256"
        }
      ],
      "stateMutability": "payable",
      "type": "constructor",
      "payable": true
    },
    {
      "anonymous": false,
      "inputs": [
        {
          "indexed": true,
          "internalType": "uint256",
          "name": "campaignID",
          "type": "uint256"
        },
        {
          "indexed": true,
          "internalType": "address",
          "name": "from",
          "type": "address"
        },
        {
          "indexed": true,
          "internalType": "uint32",
          "name": "blockNum",
          "type": "uint32"
        },
        {
          "indexed": false,
          "internalType": "uint96",
          "name": "deposit",
          "type": "uint96"
        },
        {
          "indexed": false,
          "internalType": "uint16",
          "name": "commitBalkline",
          "type": "uint16"
        },
        {
          "indexed": false,
          "internalType": "uint16",
          "name": "commitDeadline",
          "type": "uint16"
        },
        {
          "indexed": false,
          "internalType": "uint256",
          "name": "bountyPot",
          "type": "uint256"
        }
      ],
      "name": "LogCampaignAdded",
      "type": "event"
    },
    {
      "anonymous": false,
      "inputs": [
        {
          "indexed": true,
          "internalType": "uint256",
          "name": "CampaignId",
          "type": "uint256"
        },
        {
          "indexed": true,
          "internalType": "address",
          "name": "from",
          "type": "address"
        },
        {
          "indexed": false,
          "internalType": "bytes32",
          "name": "commitment",
          "type": "bytes32"
        }
      ],
      "name": "LogCommit",
      "type": "event"
    },
    {
      "anonymous": false,
      "inputs": [
        {
          "indexed": true,
          "internalType": "uint256",
          "name": "CampaignId",
          "type": "uint256"
        },
        {
          "indexed": true,
          "internalType": "address",
          "name": "from",
          "type": "address"
        },
        {
          "indexed": false,
          "internalType": "uint256",
          "name": "bountyPot",
          "type": "uint256"
        }
      ],
      "name": "LogFollow",
      "type": "event"
    },
    {
      "anonymous": false,
      "inputs": [
        {
          "indexed": true,
          "internalType": "uint256",
          "name": "CampaignId",
          "type": "uint256"
        },
        {
          "indexed": true,
          "internalType": "address",
          "name": "from",
          "type": "address"
        },
        {
          "indexed": false,
          "internalType": "uint256",
          "name": "secret",
          "type": "uint256"
        }
      ],
      "name": "LogReveal",
      "type": "event"
    },
    {
      "inputs": [
        {
          "internalType": "uint256",
          "name": "",
          "type": "uint256"
        }
      ],
      "name": "campaigns",
      "outputs": [
        {
          "internalType": "uint32",
          "name": "blockNum",
          "type": "uint32"
        },
        {
          "internalType": "uint96",
          "name": "deposit",
          "type": "uint96"
        },
        {
          "internalType": "uint16",
          "name": "commitBalkline",
          "type": "uint16"
        },
        {
          "internalType": "uint16",
          "name": "commitDeadline",
          "type": "uint16"
        },
        {
          "internalType": "uint256",
          "name": "random",
          "type": "uint256"
        },
        {
          "internalType": "bool",
          "name": "settled",
          "type": "bool"
        },
        {
          "internalType": "uint256",
          "name": "bountyPot",
          "type": "uint256"
        },
        {
          "internalType": "uint32",
          "name": "commitNum",
          "type": "uint32"
        },
        {
          "internalType": "uint32",
          "name": "revealsNum",
          "type": "uint32"
        }
      ],
      "stateMutability": "view",
      "type": "function",
      "constant": true
    },
    {
      "inputs": [],
      "name": "maxBetting",
      "outputs": [
        {
          "internalType": "uint256",
          "name": "",
          "type": "uint256"
        }
      ],
      "stateMutability": "view",
      "type": "function",
      "constant": true
    },
    {
      "inputs": [],
      "name": "maximumPlayer",
      "outputs": [
        {
          "internalType": "uint256",
          "name": "",
          "type": "uint256"
        }
      ],
      "stateMutability": "view",
      "type": "function",
      "constant": true
    },
    {
      "inputs": [],
      "name": "numCampaigns",
      "outputs": [
        {
          "internalType": "uint256",
          "name": "",
          "type": "uint256"
        }
      ],
      "stateMutability": "view",
      "type": "function",
      "constant": true
    },
    {
      "inputs": [
        {
          "internalType": "uint96",
          "name": "_deposit",
          "type": "uint96"
        }
      ],
      "name": "newCampaignAuto",
      "outputs": [
        {
          "internalType": "uint256",
          "name": "_campaignID",
          "type": "uint256"
        }
      ],
      "stateMutability": "payable",
      "type": "function",
      "payable": true
    },
    {
      "inputs": [
        {
          "internalType": "uint256",
          "name": "_campaignID",
          "type": "uint256"
        }
      ],
      "name": "follow",
      "outputs": [
        {
          "internalType": "bool",
          "name": "",
          "type": "bool"
        }
      ],
      "stateMutability": "payable",
      "type": "function",
      "payable": true
    },
    {
      "inputs": [
        {
          "internalType": "uint256",
          "name": "_campaignID",
          "type": "uint256"
        },
        {
          "internalType": "bytes32",
          "name": "_hs",
          "type": "bytes32"
        }
      ],
      "name": "commit",
      "outputs": [],
      "stateMutability": "payable",
      "type": "function",
      "payable": true
    },
    {
      "inputs": [
        {
          "internalType": "uint256",
          "name": "_campaignID",
          "type": "uint256"
        }
      ],
      "name": "getCommitmentNumber",
      "outputs": [
        {
          "internalType": "uint256[4]",
          "name": "",
          "type": "uint256[4]"
        }
      ],
      "stateMutability": "view",
      "type": "function",
      "constant": true
    },
    {
      "inputs": [
        {
          "internalType": "uint256",
          "name": "_campaignID",
          "type": "uint256"
        }
      ],
      "name": "getCommitment",
      "outputs": [
        {
          "internalType": "bytes32",
          "name": "",
          "type": "bytes32"
        }
      ],
      "stateMutability": "view",
      "type": "function",
      "constant": true
    },
    {
      "inputs": [
        {
          "internalType": "uint256",
          "name": "_s",
          "type": "uint256"
        }
      ],
      "name": "shaCommit",
      "outputs": [
        {
          "internalType": "bytes32",
          "name": "",
          "type": "bytes32"
        }
      ],
      "stateMutability": "pure",
      "type": "function",
      "constant": true
    },
    {
      "inputs": [
        {
          "internalType": "uint256",
          "name": "_campaignID",
          "type": "uint256"
        },
        {
          "internalType": "uint256",
          "name": "_s",
          "type": "uint256"
        }
      ],
      "name": "reveal",
      "outputs": [],
      "stateMutability": "nonpayable",
      "type": "function"
    },
    {
      "inputs": [
        {
          "internalType": "uint256",
          "name": "_campaignID",
          "type": "uint256"
        }
      ],
      "name": "getRandom",
      "outputs": [
        {
          "internalType": "uint256",
          "name": "",
          "type": "uint256"
        }
      ],
      "stateMutability": "nonpayable",
      "type": "function"
    },
    {
      "inputs": [
        {
          "internalType": "uint256",
          "name": "_campaignID",
          "type": "uint256"
        }
      ],
      "name": "getMyBounty",
      "outputs": [],
      "stateMutability": "nonpayable",
      "type": "function"
    },
    {
      "inputs": [],
      "name": "getThisBalance",
      "outputs": [
        {
          "internalType": "uint256",
          "name": "",
          "type": "uint256"
        }
      ],
      "stateMutability": "view",
      "type": "function",
      "constant": true
    },
    {
      "inputs": [
        {
          "internalType": "uint256",
          "name": "_campaignID",
          "type": "uint256"
        }
      ],
      "name": "refundBounty",
      "outputs": [],
      "stateMutability": "nonpayable",
      "type": "function"
    },
    {
      "inputs": [],
      "name": "kill",
      "outputs": [],
      "stateMutability": "nonpayable",
      "type": "function"
    }
  ],
  "bytecode": "0x6080604052604051620033d8380380620033d8833981810160405281019062000029919062000097565b33600560006101000a81548173ffffffffffffffffffffffffffffffffffffffff021916908373ffffffffffffffffffffffffffffffffffffffff1602179055508160018190555080600281905550505062000107565b6000815190506200009181620000ed565b92915050565b60008060408385031215620000b157620000b0620000e8565b5b6000620000c18582860162000080565b9250506020620000d48582860162000080565b9150509250929050565b6000819050919050565b600080fd5b620000f881620000de565b81146200010457600080fd5b50565b6132c180620001176000396000f3fe6080604052600436106100f35760003560e01c806369bcdb7d1161008a5780639348cef7116100595780639348cef714610340578063cd4b691414610369578063cfb3a493146103a6578063f2f03877146103cf576100f3565b806369bcdb7d1461027057806375c4b816146102ad5780638a8e5afb146102d85780638e8cf4a814610315576100f3565b8063384b1393116100c6578063384b1393146101c357806341c0e1b5146101f35780634801abc11461020a57806358b1f29c14610247576100f3565b80630a4913c8146100f8578063141961bc14610123578063173ebf4b146101685780632c0f7b6f14610198575b600080fd5b34801561010457600080fd5b5061010d6103eb565b60405161011a9190612bdc565b60405180910390f35b34801561012f57600080fd5b5061014a6004803603810190610145919061294a565b6103f1565b60405161015f99989796959493929190612bf7565b60405180910390f35b610182600480360381019061017d91906129f7565b6104c0565b60405161018f9190612bdc565b60405180910390f35b3480156101a457600080fd5b506101ad6107ee565b6040516101ba9190612bdc565b60405180910390f35b6101dd60048036038101906101d8919061294a565b6107f4565b6040516101ea9190612ba6565b60405180910390f35b3480156101ff57600080fd5b50610208610874565b005b34801561021657600080fd5b50610231600480360381019061022c919061294a565b610909565b60405161023e9190612b8b565b60405180910390f35b34801561025357600080fd5b5061026e6004803603810190610269919061294a565b6109b9565b005b34801561027c57600080fd5b506102976004803603810190610292919061294a565b6109ec565b6040516102a49190612bc1565b60405180910390f35b3480156102b957600080fd5b506102c2610a66565b6040516102cf9190612bdc565b60405180910390f35b3480156102e457600080fd5b506102ff60048036038101906102fa919061294a565b610a6c565b60405161030c9190612bc1565b60405180910390f35b34801561032157600080fd5b5061032a610a9c565b6040516103379190612bdc565b60405180910390f35b34801561034c57600080fd5b50610367600480360381019061036291906129b7565b610aa4565b005b34801561037557600080fd5b50610390600480360381019061038b919061294a565b610b21565b60405161039d9190612bdc565b60405180910390f35b3480156103b257600080fd5b506103cd60048036038101906103c8919061294a565b610b59565b005b6103e960048036038101906103e49190612977565b610be2565b005b60025481565b6003818154811061040157600080fd5b90600052602060002090600902016000915090508060000160009054906101000a900463ffffffff16908060000160049054906101000a90046bffffffffffffffffffffffff16908060000160109054906101000a900461ffff16908060000160129054906101000a900461ffff16908060010154908060020160009054906101000a900460ff16908060030154908060040160009054906101000a900463ffffffff16908060040160049054906101000a900463ffffffff16905089565b6000816bffffffffffffffffffffffff16600081116104de57600080fd5b823373ffffffffffffffffffffffffffffffffffffffff1631816bffffffffffffffffffffffff16111561051157600080fd5b600380549050925060036001816001815401808255809150500390600052602060002090505060006003848154811061054d5761054c6131d6565b5b9060005260206000209060090201905060008081548092919061056f90613096565b9190505550438160000160006101000a81548163ffffffff021916908363ffffffff160217905550848160000160046101000a8154816bffffffffffffffffffffffff02191690836bffffffffffffffffffffffff16021790555060c880434445426040516020016105e49493929190612b3d565b6040516020818303038152906040528051906020012060001c6106079190613116565b6106119190612cf6565b8160000160106101000a81548161ffff021916908361ffff16021790555060c8434445426040516020016106489493929190612b3d565b6040516020818303038152906040528051906020012060001c61066b9190613116565b8160000160126101000a81548161ffff021916908361ffff16021790555034816003018190555060405180604001604052803373ffffffffffffffffffffffffffffffffffffffff168152602001348152508160050160003373ffffffffffffffffffffffffffffffffffffffff1673ffffffffffffffffffffffffffffffffffffffff16815260200190815260200160002060008201518160000160006101000a81548173ffffffffffffffffffffffffffffffffffffffff021916908373ffffffffffffffffffffffffffffffffffffffff160217905550602082015181600101559050508060000160009054906101000a900463ffffffff1663ffffffff163373ffffffffffffffffffffffffffffffffffffffff16857f1fec0e961ed9a5d582eb83ec0029dc7c1f0cdd44cfae6f49c8e316b8005d1516888560000160109054906101000a900461ffff168660000160129054906101000a900461ffff168b6040516107de9493929190612c84565b60405180910390a4505050919050565b60005481565b6000806003838154811061080b5761080a6131d6565b5b9060005260206000209060090201905060008160050160003373ffffffffffffffffffffffffffffffffffffffff1673ffffffffffffffffffffffffffffffffffffffff168152602001908152602001600020905061086b848383610c29565b92505050919050565b600560009054906101000a900473ffffffffffffffffffffffffffffffffffffffff1673ffffffffffffffffffffffffffffffffffffffff163373ffffffffffffffffffffffffffffffffffffffff16146108ce57600080fd5b600560009054906101000a900473ffffffffffffffffffffffffffffffffffffffff1673ffffffffffffffffffffffffffffffffffffffff16ff5b610911612848565b60038281548110610925576109246131d6565b5b906000526020600020906009020160070160003373ffffffffffffffffffffffffffffffffffffffff1673ffffffffffffffffffffffffffffffffffffffff1681526020019081526020016000206000016004806020026040519081016040528092919082600480156109ad576020028201915b815481526020019060010190808311610999575b50505050509050919050565b6000600382815481106109cf576109ce6131d6565b5b906000526020600020906009020190506109e881610e7f565b5050565b60008060038381548110610a0357610a026131d6565b5b9060005260206000209060090201905060008160060160003373ffffffffffffffffffffffffffffffffffffffff1673ffffffffffffffffffffffffffffffffffffffff1681526020019081526020016000209050806001015492505050919050565b60015481565b600081604051602001610a7f9190612b22565b604051602081830303815290604052805190602001209050919050565b600047905090565b600060038381548110610aba57610ab96131d6565b5b9060005260206000209060090201905060008160060160003373ffffffffffffffffffffffffffffffffffffffff1673ffffffffffffffffffffffffffffffffffffffff1681526020019081526020016000209050610b1b8484848461107c565b50505050565b60008060038381548110610b3857610b376131d6565b5b90600052602060002090600902019050610b51816111ff565b915050919050565b600060038281548110610b6f57610b6e6131d6565b5b9060005260206000209060090201905060008160060160003373ffffffffffffffffffffffffffffffffffffffff1673ffffffffffffffffffffffffffffffffffffffff16815260200190815260200160002090506000610bcf84611295565b9050610bdc838383611abd565b50505050565b806000811415610bf157600080fd5b600060038481548110610c0757610c066131d6565b5b90600052602060002090600902019050610c2384843484611cc5565b50505050565b60008260000160009054906101000a900463ffffffff1663ffffffff168360000160129054906101000a900461ffff168061ffff1682610c699190612fc6565b431115610c7557600080fd5b8360000160009054906101000a900473ffffffffffffffffffffffffffffffffffffffff16600073ffffffffffffffffffffffffffffffffffffffff168173ffffffffffffffffffffffffffffffffffffffff1614610cd357600080fd5b34866003016000828254610ce79190612d2e565b9250508190555060405180604001604052803373ffffffffffffffffffffffffffffffffffffffff168152602001348152508660050160003373ffffffffffffffffffffffffffffffffffffffff1673ffffffffffffffffffffffffffffffffffffffff16815260200190815260200160002060008201518160000160006101000a81548173ffffffffffffffffffffffffffffffffffffffff021916908373ffffffffffffffffffffffffffffffffffffffff1602179055506020820151816001015590505060046000888152602001908152602001600020339080600181540180825580915050600190039060005260206000200160009091909190916101000a81548173ffffffffffffffffffffffffffffffffffffffff021916908373ffffffffffffffffffffffffffffffffffffffff1602179055503373ffffffffffffffffffffffffffffffffffffffff16877f23dccbd65d14a6f1eca0cb7a8c085ea070cc1dc36fde87272dcd7b2e0c4748b234604051610e699190612bdc565b60405180910390a3600193505050509392505050565b8060000160009054906101000a900463ffffffff1663ffffffff1680431015610ea757600080fd5b8160040160009054906101000a900463ffffffff168260040160049054906101000a900463ffffffff168063ffffffff168263ffffffff16148015610ef3575060008263ffffffff1614155b15610efd57600080fd5b8360050160003373ffffffffffffffffffffffffffffffffffffffff1673ffffffffffffffffffffffffffffffffffffffff16815260200190815260200160002060000160009054906101000a900473ffffffffffffffffffffffffffffffffffffffff163373ffffffffffffffffffffffffffffffffffffffff168173ffffffffffffffffffffffffffffffffffffffff1614610f9a57600080fd5b60008560050160003373ffffffffffffffffffffffffffffffffffffffff1673ffffffffffffffffffffffffffffffffffffffff16815260200190815260200160002060010154905060008660050160003373ffffffffffffffffffffffffffffffffffffffff1673ffffffffffffffffffffffffffffffffffffffff168152602001908152602001600020600101819055503373ffffffffffffffffffffffffffffffffffffffff166108fc829081150290604051600060405180830381858888f19350505050158015611073573d6000803e3d6000fd5b50505050505050565b8160000160009054906101000a900463ffffffff1663ffffffff168260000160129054906101000a900461ffff168061ffff16826110ba9190612fc6565b43116110c557600080fd5b8143106110d157600080fd5b84836001015480826040516020016110e99190612b22565b604051602081830303815290604052805190602001201461110957600080fd5b8460030160009054906101000a900460ff16801561112657600080fd5b87866000018190555060018660030160006101000a81548160ff02191690831515021790555086600401600481819054906101000a900463ffffffff1680929190611170906130df565b91906101000a81548163ffffffff021916908363ffffffff16021790555050856000015487600101600082825418925050819055503373ffffffffffffffffffffffffffffffffffffffff16897f9141bfaedbc77aa7b8d9c989cd81909d95bb1677e556e34cfd45e50e0bea29678a6040516111ec9190612bdc565b60405180910390a3505050505050505050565b60008160000160009054906101000a900463ffffffff1663ffffffff168043101561122957600080fd5b8260040160009054906101000a900463ffffffff1663ffffffff168360040160049054906101000a900463ffffffff1663ffffffff16141561128e5760018360020160006101000a81548160ff0219169083151502179055508260010154915061128f565b5b50919050565b61129d61286a565b6000600383815481106112b3576112b26131d6565b5b906000526020600020906009020190508060040160009054906101000a900463ffffffff1663ffffffff168160040160049054906101000a900463ffffffff1663ffffffff161461130357600080fd5b60008160040160009054906101000a900463ffffffff1663ffffffff16141561132b57600080fd5b60006004600085815260200190815260200160002090506000600460008681526020019081526020016000208054905067ffffffffffffffff81111561137457611373613205565b5b6040519080825280602002602001820160405280156113a25781602001602082028036833780820191505090505b50905060005b82805490508110156114ab576114798460070160008584815481106113d0576113cf6131d6565b5b9060005260206000200160009054906101000a900473ffffffffffffffffffffffffffffffffffffffff1673ffffffffffffffffffffffffffffffffffffffff1673ffffffffffffffffffffffffffffffffffffffff16815260200190815260200160002060000160048060200260405190810160405280929190826004801561146f576020028201915b81548152602001906001019080831161145b575b50505050506123d5565b82828151811061148c5761148b6131d6565b5b60200260200101818152505080806114a390613096565b9150506113a8565b506114b461288c565b6000816000600381106114ca576114c96131d6565b5b6020020181815250506000816001600381106114e9576114e86131d6565b5b602002018181525050600081600260038110611508576115076131d6565b5b60200201818152505061151961286a565b60005b8480549050811015611aaf5783818151811061153b5761153a6131d6565b5b602002602001015183600060038110611557576115566131d6565b5b602002015110156117cc5782600160038110611576576115756131d6565b5b60200201518360006003811061158f5761158e6131d6565b5b60200201511061170657826002600381106115ad576115ac6131d6565b5b6020020151836001600381106115c6576115c56131d6565b5b60200201511061166b57826001600381106115e4576115e36131d6565b5b6020020151836002600381106115fd576115fc6131d6565b5b6020020181815250508160016003811061161a576116196131d6565b5b602002015182600260038110611633576116326131d6565b5b602002019073ffffffffffffffffffffffffffffffffffffffff16908173ffffffffffffffffffffffffffffffffffffffff16815250505b8260016003811061167f5761167e6131d6565b5b602002015183600060038110611698576116976131d6565b5b602002018181525050816001600381106116b5576116b46131d6565b5b6020020151826000600381106116ce576116cd6131d6565b5b602002019073ffffffffffffffffffffffffffffffffffffffff16908173ffffffffffffffffffffffffffffffffffffffff16815250505b838181518110611719576117186131d6565b5b602002602001015183600060038110611735576117346131d6565b5b602002018181525050848181548110611751576117506131d6565b5b9060005260206000200160009054906101000a900473ffffffffffffffffffffffffffffffffffffffff16826000600381106117905761178f6131d6565b5b602002019073ffffffffffffffffffffffffffffffffffffffff16908173ffffffffffffffffffffffffffffffffffffffff1681525050611a9c565b8381815181106117df576117de6131d6565b5b6020026020010151836001600381106117fb576117fa6131d6565b5b6020020151101561199e578260026003811061181a576118196131d6565b5b602002015183600160038110611833576118326131d6565b5b6020020151106118d85782600160038110611851576118506131d6565b5b60200201518360026003811061186a576118696131d6565b5b60200201818152505081600160038110611887576118866131d6565b5b6020020151826002600381106118a05761189f6131d6565b5b602002019073ffffffffffffffffffffffffffffffffffffffff16908173ffffffffffffffffffffffffffffffffffffffff16815250505b8381815181106118eb576118ea6131d6565b5b602002602001015183600160038110611907576119066131d6565b5b602002018181525050848181548110611923576119226131d6565b5b9060005260206000200160009054906101000a900473ffffffffffffffffffffffffffffffffffffffff1682600160038110611962576119616131d6565b5b602002019073ffffffffffffffffffffffffffffffffffffffff16908173ffffffffffffffffffffffffffffffffffffffff1681525050611a9b565b8381815181106119b1576119b06131d6565b5b6020026020010151836002600381106119cd576119cc6131d6565b5b60200201511015611a9a578381815181106119eb576119ea6131d6565b5b602002602001015183600260038110611a0757611a066131d6565b5b602002018181525050848181548110611a2357611a226131d6565b5b9060005260206000200160009054906101000a900473ffffffffffffffffffffffffffffffffffffffff1682600260038110611a6257611a616131d6565b5b602002019073ffffffffffffffffffffffffffffffffffffffff16908173ffffffffffffffffffffffffffffffffffffffff16815250505b5b5b8080611aa790613096565b91505061151c565b508095505050505050919050565b8260000160009054906101000a900463ffffffff1663ffffffff1680431015611ae557600080fd5b8260030160019054906101000a900460ff168015611b0257600080fd5b60008560040160049054906101000a900463ffffffff1663ffffffff161115611cb1578360030160009054906101000a900460ff1615611cac576000805b6003811015611c9e57600081148015611b9b57503373ffffffffffffffffffffffffffffffffffffffff16858260038110611b7e57611b7d6131d6565b5b602002015173ffffffffffffffffffffffffffffffffffffffff16145b15611bb257611bab87600061248a565b9150611c8b565b600181148015611c0457503373ffffffffffffffffffffffffffffffffffffffff16858260038110611be757611be66131d6565b5b602002015173ffffffffffffffffffffffffffffffffffffffff16145b15611c1b57611c1487600161248a565b9150611c8a565b600281148015611c6d57503373ffffffffffffffffffffffffffffffffffffffff16858260038110611c5057611c4f6131d6565b5b602002015173ffffffffffffffffffffffffffffffffffffffff16145b15611c8457611c7d87600261248a565b9150611c89565b600091505b5b5b8080611c9690613096565b915050611b40565b50611caa818787612512565b505b611cbe565b611cbd60008686612512565b5b5050505050565b8060000160049054906101000a90046bffffffffffffffffffffffff166bffffffffffffffffffffffff1680341015611cfd57600080fd5b8160000160049054906101000a90046bffffffffffffffffffffffff166bffffffffffffffffffffffff16600154341115611d3757600080fd5b8260000160009054906101000a900463ffffffff1663ffffffff168360000160109054906101000a900461ffff168460000160129054906101000a900461ffff168161ffff16831080611d8d57508061ffff1683105b15612094578560060160003373ffffffffffffffffffffffffffffffffffffffff1673ffffffffffffffffffffffffffffffffffffffff1681526020019081526020016000206001015460008114611de457600080fd5b8660080160008a815260200190815260200160002060009054906101000a900460ff1615611e1157600080fd5b6000611e1c8a612584565b90506040518060a00160405280600081526020018b815260200160008152602001600015158152602001600015158152508860060160003373ffffffffffffffffffffffffffffffffffffffff1673ffffffffffffffffffffffffffffffffffffffff16815260200190815260200160002060008201518160000155602082015181600101556040820151816002015560608201518160030160006101000a81548160ff02191690831515021790555060808201518160030160016101000a81548160ff02191690831515021790555090505060405180606001604052808281526020018a81526020013373ffffffffffffffffffffffffffffffffffffffff168152508860070160003373ffffffffffffffffffffffffffffffffffffffff1673ffffffffffffffffffffffffffffffffffffffff168152602001908152602001600020600082015181600001906004611f789291906128ae565b506020820151816004015560408201518160050160006101000a81548173ffffffffffffffffffffffffffffffffffffffff021916908373ffffffffffffffffffffffffffffffffffffffff16021790555090505087600401600081819054906101000a900463ffffffff1680929190611ff1906130df565b91906101000a81548163ffffffff021916908363ffffffff1602179055505060018860080160008c815260200190815260200160002060006101000a81548160ff0219169083151502179055503373ffffffffffffffffffffffffffffffffffffffff168b7f918c00c65dd2a8dee4c6985d1d67f04aa8cd2c93e8d427d398a90444c7f7c75e8c6040516120859190612bc1565b60405180910390a350506120cd565b8161ffff16836120a49190612fc6565b4310156120b057600080fd5b8061ffff16836120c09190612fc6565b4311156120cc57600080fd5b5b8560060160003373ffffffffffffffffffffffffffffffffffffffff1673ffffffffffffffffffffffffffffffffffffffff168152602001908152602001600020600101546000811461211f57600080fd5b8660080160008a815260200190815260200160002060009054906101000a900460ff161561214c57600080fd5b60006121578a612584565b90506040518060a00160405280600081526020018b815260200160008152602001600015158152602001600015158152508860060160003373ffffffffffffffffffffffffffffffffffffffff1673ffffffffffffffffffffffffffffffffffffffff16815260200190815260200160002060008201518160000155602082015181600101556040820151816002015560608201518160030160006101000a81548160ff02191690831515021790555060808201518160030160016101000a81548160ff02191690831515021790555090505060405180606001604052808281526020018a81526020013373ffffffffffffffffffffffffffffffffffffffff168152508860070160003373ffffffffffffffffffffffffffffffffffffffff1673ffffffffffffffffffffffffffffffffffffffff1681526020019081526020016000206000820151816000019060046122b39291906128ae565b506020820151816004015560408201518160050160006101000a81548173ffffffffffffffffffffffffffffffffffffffff021916908373ffffffffffffffffffffffffffffffffffffffff16021790555090505087600401600081819054906101000a900463ffffffff168092919061232c906130df565b91906101000a81548163ffffffff021916908363ffffffff1602179055505060018860080160008c815260200190815260200160002060006101000a81548160ff0219169083151502179055503373ffffffffffffffffffffffffffffffffffffffff168b7f918c00c65dd2a8dee4c6985d1d67f04aa8cd2c93e8d427d398a90444c7f7c75e8c6040516123c09190612bc1565b60405180910390a35050505050505050505050565b600080826003600481106123ec576123eb6131d6565b5b6020020151600a84600260048110612407576124066131d6565b5b60200201516124169190612f26565b60648560016004811061242c5761242b6131d6565b5b602002015161243b9190612f26565b6103e886600060048110612452576124516131d6565b5b60200201516124619190612f26565b61246b9190612d2e565b6124759190612d2e565b61247f9190612d2e565b905080915050919050565b60008260040160049054906101000a900463ffffffff1663ffffffff168360040160009054906101000a900463ffffffff1663ffffffff1611156124ff578260040160049054906101000a900463ffffffff1663ffffffff166124ee8460036126f8565b6124f89190612d84565b905061250c565b61250983836126f8565b90505b92915050565b82816002018190555060018160030160016101000a81548160ff0219169083151502179055503373ffffffffffffffffffffffffffffffffffffffff166108fc849081150290604051600060405180830381858888f1935050505015801561257e573d6000803e3d6000fd5b50505050565b61258c612848565b60008083901c77ffffffffffffffffffffffffffffffffffffffffffffffff191690506000600884901c77ffffffffffffffffffffffffffffffffffffffffffffffff191690506000601085901c77ffffffffffffffffffffffffffffffffffffffffffffffff191690506000602086901c77ffffffffffffffffffffffffffffffffffffffffffffffff19169050612623612848565b600a61262e866127b1565b6126389190613147565b8160006004811061264c5761264b6131d6565b5b602002018181525050600a612660856127b1565b61266a9190613147565b8160016004811061267e5761267d6131d6565b5b602002018181525050600a612692846127b1565b61269c9190613147565b816002600481106126b0576126af6131d6565b5b602002018181525050600a6126c4836127b1565b6126ce9190613147565b816003600481106126e2576126e16131d6565b5b6020020181815250508095505050505050919050565b6000808214156127195760018261270f9190612d2e565b47901c90506127ab565b60018214806127285750600282145b1561273957600247901c90506127ab565b8260000160049054906101000a90046bffffffffffffffffffffffff168360040160049054906101000a900463ffffffff168460040160009054906101000a900463ffffffff1661278a9190612ffa565b63ffffffff1661279a9190612f80565b6bffffffffffffffffffffffff1690505b92915050565b60008060005b602060ff1681101561283e576001816127d09190612d2e565b602060ff166127df9190612fc6565b60086127eb9190612f26565b60026127f79190612e08565b84826020811061280a576128096131d6565b5b1a60f81b60f81c60ff1661281e9190612f26565b826128299190612d2e565b9150808061283690613096565b9150506127b7565b5080915050919050565b6040518060800160405280600490602082028036833780820191505090505090565b6040518060600160405280600390602082028036833780820191505090505090565b6040518060600160405280600390602082028036833780820191505090505090565b82600481019282156128dd579160200282015b828111156128dc5782518255916020019190600101906128c1565b5b5090506128ea91906128ee565b5090565b5b808211156129075760008160009055506001016128ef565b5090565b60008135905061291a81613246565b92915050565b60008135905061292f8161325d565b92915050565b60008135905061294481613274565b92915050565b6000602082840312156129605761295f613234565b5b600061296e84828501612920565b91505092915050565b6000806040838503121561298e5761298d613234565b5b600061299c85828601612920565b92505060206129ad8582860161290b565b9150509250929050565b600080604083850312156129ce576129cd613234565b5b60006129dc85828601612920565b92505060206129ed85828601612920565b9150509250929050565b600060208284031215612a0d57612a0c613234565b5b6000612a1b84828501612935565b91505092915050565b6000612a308383612ac0565b60208301905092915050565b612a4581612cd3565b612a4f8184612ceb565b9250612a5a82612cc9565b8060005b83811015612a8b578151612a728782612a24565b9650612a7d83612cde565b925050600181019050612a5e565b505050505050565b612a9c8161302e565b82525050565b612aab8161303a565b82525050565b612aba81613044565b82525050565b612ac981613052565b82525050565b612ad881613052565b82525050565b612aef612aea82613052565b61310c565b82525050565b612afe8161305c565b82525050565b612b0d81613084565b82525050565b612b1c8161306c565b82525050565b6000612b2e8284612ade565b60208201915081905092915050565b6000612b498287612ade565b602082019150612b598286612ade565b602082019150612b698285612ade565b602082019150612b798284612ade565b60208201915081905095945050505050565b6000608082019050612ba06000830184612a3c565b92915050565b6000602082019050612bbb6000830184612a93565b92915050565b6000602082019050612bd66000830184612aa2565b92915050565b6000602082019050612bf16000830184612acf565b92915050565b600061012082019050612c0d600083018c612af5565b612c1a602083018b612b13565b612c27604083018a612ab1565b612c346060830189612ab1565b612c416080830188612acf565b612c4e60a0830187612a93565b612c5b60c0830186612acf565b612c6860e0830185612af5565b612c76610100830184612af5565b9a9950505050505050505050565b6000608082019050612c996000830187612b13565b612ca66020830186612ab1565b612cb36040830185612ab1565b612cc06060830184612b04565b95945050505050565b6000819050919050565b600060049050919050565b6000602082019050919050565b600081905092915050565b6000612d0182613044565b9150612d0c83613044565b92508261ffff03821115612d2357612d22613178565b5b828201905092915050565b6000612d3982613052565b9150612d4483613052565b9250827fffffffffffffffffffffffffffffffffffffffffffffffffffffffffffffffff03821115612d7957612d78613178565b5b828201905092915050565b6000612d8f82613052565b9150612d9a83613052565b925082612daa57612da96131a7565b5b828204905092915050565b6000808291508390505b6001851115612dff57808604811115612ddb57612dda613178565b5b6001851615612dea5780820291505b8081029050612df885613239565b9450612dbf565b94509492505050565b6000612e1382613052565b9150612e1e83613052565b9250612e4b7fffffffffffffffffffffffffffffffffffffffffffffffffffffffffffffffff8484612e53565b905092915050565b600082612e635760019050612f1f565b81612e715760009050612f1f565b8160018114612e875760028114612e9157612ec0565b6001915050612f1f565b60ff841115612ea357612ea2613178565b5b8360020a915084821115612eba57612eb9613178565b5b50612f1f565b5060208310610133831016604e8410600b8410161715612ef55782820a905083811115612ef057612eef613178565b5b612f1f565b612f028484846001612db5565b92509050818404811115612f1957612f18613178565b5b81810290505b9392505050565b6000612f3182613052565b9150612f3c83613052565b9250817fffffffffffffffffffffffffffffffffffffffffffffffffffffffffffffffff0483118215151615612f7557612f74613178565b5b828202905092915050565b6000612f8b8261306c565b9150612f968361306c565b9250816bffffffffffffffffffffffff0483118215151615612fbb57612fba613178565b5b828202905092915050565b6000612fd182613052565b9150612fdc83613052565b925082821015612fef57612fee613178565b5b828203905092915050565b60006130058261305c565b91506130108361305c565b92508282101561302357613022613178565b5b828203905092915050565b60008115159050919050565b6000819050919050565b600061ffff82169050919050565b6000819050919050565b600063ffffffff82169050919050565b60006bffffffffffffffffffffffff82169050919050565b600061308f8261306c565b9050919050565b60006130a182613052565b91507fffffffffffffffffffffffffffffffffffffffffffffffffffffffffffffffff8214156130d4576130d3613178565b5b600182019050919050565b60006130ea8261305c565b915063ffffffff82141561310157613100613178565b5b600182019050919050565b6000819050919050565b600061312182613044565b915061312c83613044565b92508261313c5761313b6131a7565b5b828206905092915050565b600061315282613052565b915061315d83613052565b92508261316d5761316c6131a7565b5b828206905092915050565b7f4e487b7100000000000000000000000000000000000000000000000000000000600052601160045260246000fd5b7f4e487b7100000000000000000000000000000000000000000000000000000000600052601260045260246000fd5b7f4e487b7100000000000000000000000000000000000000000000000000000000600052603260045260246000fd5b7f4e487b7100000000000000000000000000000000000000000000000000000000600052604160045260246000fd5b600080fd5b60008160011c9050919050565b61324f8161303a565b811461325a57600080fd5b50565b61326681613052565b811461327157600080fd5b50565b61327d8161306c565b811461328857600080fd5b5056fea264697066735822122023f301344003994958a9a0430413cc022aa0877bd73e9ab68082738994d1406364736f6c63430008070033",
  "immutableReferences": {},
  "source": "// SPDX-License-Identifier: MIT\r\n\r\npragma solidity >=0.4.24 <=0.8.7;\r\n\r\ncontract Casino {\r\n    \r\n    struct Participant {\r\n        uint256 secret;\r\n        bytes32 commitment;\r\n        uint256 reward;\r\n        bool revealed;\r\n        bool rewarded;\r\n    }\r\n    \r\n    struct Player {\r\n        uint [4] bettingNumber;\r\n        uint256 bettingAmount;\r\n        address playerAddr;\r\n    }\r\n    \r\n    struct Consumer {\r\n        address consumerAddr;\r\n        uint256 bountyPot;\r\n    }\r\n    \r\n    struct Campaign {\r\n        uint32 blockNum;\r\n        uint96 deposit;\r\n        uint16 commitBalkline;\r\n        uint16 commitDeadline;\r\n        \r\n        uint256 random;\r\n        bool settled;\r\n        uint256 bountyPot;\r\n        uint32 commitNum;\r\n        uint32 revealsNum;\r\n        \r\n        mapping (address => Consumer) consumers;\r\n        mapping (address => Participant) participants;\r\n        mapping (address => Player) players;\r\n        mapping (bytes32 => bool) commitments;\r\n    }\r\n    \r\n    uint256 public numCampaigns;\r\n    uint256 public maxBetting;\r\n    uint256 public maximumPlayer;\r\n    Campaign[] public campaigns;\r\n    mapping(uint256 => address []) internal players;\r\n    address payable founder;\r\n    \r\n    modifier blankAddress(address n) { if (n != address(0)) revert(); _; }\r\n    \r\n    modifier moreThanZero(uint256 _deposit) {if (_deposit <= 0) revert(); _; }\r\n    \r\n    modifier notBeBlank(bytes32 _s) { if (_s == \"\") revert(); _; }\r\n    \r\n    modifier beBlank(bytes32 _s) { if (_s != \"\") revert(); _; }\r\n    \r\n    modifier beFalse(bool _t) { if (_t) revert(); _; }\r\n    \r\n    constructor(uint256 _maxBetting, uint256 _maximumPlayer) public payable{\r\n        founder = payable(msg.sender);\r\n        maxBetting = _maxBetting;\r\n        maximumPlayer = _maximumPlayer;\r\n    }\r\n    \r\n    event LogCampaignAdded(uint256 indexed campaignID,\r\n                           address indexed from,\r\n                           uint32 indexed blockNum,\r\n                           uint96 deposit,\r\n                           uint16 commitBalkline,\r\n                           uint16 commitDeadline,\r\n                           uint256 bountyPot);\r\n                           \r\n    modifier timeLineCheck(uint32 _blockNum, uint16 _commitBalkline, uint16 _commitDeadline) {\r\n        if(block.number >= _blockNum) revert();\r\n        if(_commitBalkline <= 0) revert();\r\n        if(_commitDeadline <= 0) revert();\r\n        if(_commitDeadline >= _commitBalkline) revert();\r\n        if(block.number >= _blockNum - _commitBalkline) revert();\r\n        \r\n        _;\r\n    }\r\n    \r\n    /*\r\n     struct Campaign {\r\n        uint32 blockNum;\r\n        uint96 deposit;\r\n        uint16 commitBalkline;\r\n        uint16 commitDeadline;\r\n        \r\n        uint256 random;\r\n        bool settled;\r\n        uint256 bountyPot;\r\n        uint32 commitNum;\r\n        uint32 revealsNum;\r\n        \r\n        mapping (address => Consumer) consumers;\r\n        mapping (address => Participant) participants;\r\n        mapping (bytes32 => bool) commitments;\r\n    }\r\n    \r\n    */\r\n    \r\n    modifier checkBalance(uint96 _deposit) { if (_deposit > msg.sender.balance ) revert(); _; }\r\n    \r\n    function newCampaignAuto(\r\n        uint96 _deposit\r\n    ) payable external \r\n        moreThanZero(_deposit) \r\n        checkBalance(_deposit)\r\n    returns(uint256 _campaignID){\r\n        _campaignID = campaigns.length;\r\n        campaigns.push();\r\n        Campaign storage c = campaigns[_campaignID];\r\n        numCampaigns++;\r\n        \r\n        c.blockNum = uint32(block.number);\r\n        c.deposit = _deposit;\r\n        c.commitBalkline = uint16(uint(keccak256(abi.encodePacked(block.number, block.difficulty, block.gaslimit, block.timestamp)))) % 200 + 200;\r\n        c.commitDeadline = uint16(uint(keccak256(abi.encodePacked(block.number, block.difficulty, block.gaslimit, block.timestamp)))) % 200;\r\n        c.bountyPot = msg.value;\r\n        c.consumers[msg.sender] = Consumer(msg.sender, msg.value); \r\n        \r\n            \r\n        emit LogCampaignAdded(_campaignID, msg.sender, c.blockNum, _deposit, c.commitBalkline, c.commitDeadline, _deposit);\r\n        \r\n        return _campaignID;\r\n    }\r\n    \r\n    event LogFollow(uint256 indexed CampaignId, address indexed from, uint256 bountyPot);\r\n    \r\n    function follow(uint256 _campaignID) external payable returns (bool) {\r\n        Campaign storage c = campaigns[_campaignID];\r\n        Consumer storage consumer = c.consumers[msg.sender];\r\n        return followCampaign(_campaignID, c, consumer);\r\n    }\r\n    \r\n    modifier checkFollowPhase(uint256 _blockNum, uint16 _commitDeadline) {\r\n        if(block.number > _blockNum - _commitDeadline) revert();\r\n        _;\r\n    }\r\n    \r\n    function followCampaign(\r\n        uint256 _campaignID,\r\n        Campaign storage c,\r\n        Consumer storage consumer\r\n    ) checkFollowPhase(c.blockNum, c.commitDeadline) blankAddress(consumer.consumerAddr) internal returns(bool) {\r\n        c.bountyPot += msg.value;\r\n        c.consumers[msg.sender] = Consumer(msg.sender, msg.value);\r\n        players[_campaignID].push(msg.sender);\r\n        \r\n        emit LogFollow(_campaignID, msg.sender, msg.value);\r\n        \r\n        return true;\r\n    }\r\n\r\n    event LogCommit(uint256 indexed CampaignId, address indexed from, bytes32 commitment);\r\n    \r\n    function commit(uint256 _campaignID, bytes32 _hs) notBeBlank(_hs) external payable {\r\n        Campaign storage c = campaigns[_campaignID];\r\n        commitmentCampaign(_campaignID, _hs, msg.value, c);\r\n    }\r\n    \r\n    modifier checkDeposit(uint256 _deposit) { if (msg.value < _deposit) revert(); _;}\r\n    \r\n    modifier checkMaximum(uint256 _deposit) { if (msg.value > maxBetting) revert(); _; }\r\n    \r\n    modifier checkCommitPhase(uint256 _blockNum, uint16 _commitBalkline, uint16 _commitDeadline) {\r\n        if (_blockNum < _commitBalkline || _blockNum < _commitDeadline) { \r\n            _; \r\n            \r\n        } else {\r\n            if (block.number < _blockNum - _commitBalkline) revert();\r\n            if (block.number > _blockNum - _commitDeadline) revert();\r\n        }\r\n        _;\r\n    }\r\n    \r\n\r\n    function getCommitmentNumber(uint256 _campaignID) public view returns (uint [4] memory){\r\n        return campaigns[_campaignID].players[msg.sender].bettingNumber;\r\n    }\r\n    \r\n    /*\r\n    struct Player {\r\n        uint [4] bettingNumber;\r\n        uint256 bettingAmount;\r\n        address playerAddr;\r\n    }\r\n    */\r\n    \r\n    modifier checkPlayer(uint256 _campaignID) {\r\n        address[] memory list = players[_campaignID];\r\n        bool check = false;\r\n        \r\n        for (uint i=0; i < list.length; i++) {\r\n            if (list[i] == msg.sender) check = true; \r\n        }\r\n        \r\n        if (!check) { revert(); _; } \r\n    }\r\n\r\n    function commitmentCampaign(\r\n        uint256 _campaignID,\r\n        bytes32 _hs,\r\n        uint256 betting,\r\n        Campaign storage c\r\n    ) checkDeposit(c.deposit) \r\n      checkMaximum(c.deposit)\r\n      checkCommitPhase(c.blockNum, c.commitBalkline, c.commitDeadline)\r\n      beBlank(c.participants[msg.sender].commitment) internal {\r\n          if(c.commitments[_hs]) {\r\n              revert();\r\n          } else  {\r\n              \r\n              uint[4] memory arrayBettingNumber = commitmentsNumber(_hs);\r\n              \r\n              c.participants[msg.sender] = Participant(0, _hs, 0, false, false);\r\n              c.players[msg.sender] = Player(arrayBettingNumber, betting, msg.sender);\r\n              c.commitNum++;\r\n              c.commitments[_hs] = true;\r\n              \r\n              emit LogCommit(_campaignID, msg.sender, _hs);\r\n          }\r\n      }\r\n      \r\n      \r\n    function bytesToUint(bytes32 b) internal pure returns (uint){\r\n        uint number;\r\n        for(uint i=0;i<b.length;i++){\r\n            number = number + uint(uint8(b[i]))*(2**(8*(b.length-(i+1))));\r\n        }\r\n        return number;\r\n    }\r\n    \r\n    function commitmentsNumber(bytes32 _hs) internal pure returns (uint[4] memory){\r\n        bytes32 a = bytes32(bytes8(_hs >> 0));\r\n        bytes32 b = bytes32(bytes8(_hs >> 8));\r\n        bytes32 c = bytes32(bytes8(_hs >> 16));\r\n        bytes32 d = bytes32(bytes8(_hs >> 32));\r\n        \r\n        uint[4] memory temp;\r\n        \r\n        temp[0] = bytesToUint(a)%10;\r\n        temp[1] = bytesToUint(b)%10;\r\n        temp[2] = bytesToUint(c)%10;\r\n        temp[3] = bytesToUint(d)%10;\r\n        \r\n        return temp;\r\n    }\r\n    \r\n    function getCommitment(uint256 _campaignID) external view returns(bytes32) {\r\n        Campaign storage c = campaigns[_campaignID];\r\n        Participant storage p = c.participants[msg.sender];\r\n        return p.commitment;\r\n    }\r\n    \r\n    function shaCommit(uint256 _s) public pure returns (bytes32) {\r\n        return keccak256(abi.encodePacked(_s));\r\n    }\r\n    \r\n    function reveal(uint256 _campaignID, uint256 _s) external {\r\n        Campaign storage c = campaigns[_campaignID];\r\n        Participant storage p = c.participants[msg.sender];\r\n        revealCampaign(_campaignID, _s, c, p);\r\n    }\r\n    \r\n    event LogReveal(uint256 indexed CampaignId, address indexed from, uint256 secret);\r\n    \r\n    modifier checkRevealPhase(uint256 _blockNum, uint16 _commitDeadline) {\r\n        if (block.number <= _blockNum - _commitDeadline) revert();\r\n        if (block.number >= _blockNum) revert();\r\n        _;\r\n    }\r\n    \r\n    modifier checkSecret(uint256 _s, bytes32 _commitment) {\r\n        if (keccak256(abi.encodePacked(_s)) != _commitment) revert();\r\n        _;\r\n    }\r\n    \r\n    function revealCampaign(\r\n        uint256 _campaignID,\r\n        uint256 _s,\r\n        Campaign storage c,\r\n        Participant storage p\r\n    ) checkRevealPhase(c.blockNum, c.commitDeadline)\r\n        checkSecret(_s, p.commitment)\r\n        beFalse(p.revealed) internal {\r\n        p.secret= _s;\r\n        p.revealed = true;\r\n        c.revealsNum++;\r\n        c.random ^= p.secret;\r\n        emit LogReveal(_campaignID, msg.sender, _s);\r\n    }\r\n    \r\n    modifier bountyPhase(uint256 _bnum){if (block.number < _bnum) revert(); _;}\r\n\r\n    function getRandom(uint256 _campaignID) external returns (uint256) {\r\n        Campaign storage c = campaigns[_campaignID];\r\n        return returnRandom(c);\r\n    }\r\n\r\n    function returnRandom(Campaign storage c) internal bountyPhase(c.blockNum) \r\n    returns (uint256) {\r\n        if (c.revealsNum == c.commitNum) {\r\n            c.settled = true;\r\n            return c.random;\r\n        }\r\n    }\r\n    \r\n    //------------------------------------------------------------------------------------------------------------------------------\r\n    \r\n    function getMyBounty(uint256 _campaignID) external {\r\n        Campaign storage c = campaigns[_campaignID];\r\n        Participant storage p = c.participants[msg.sender];\r\n        address[3] memory w = checkWinner(_campaignID);\r\n        transferBounty(c, p, w);\r\n    }\r\n\r\n    function transferBounty(\r\n        Campaign storage c,\r\n        Participant storage p,\r\n        address[3] memory w\r\n        ) bountyPhase(c.blockNum)\r\n        beFalse(p.rewarded) internal {\r\n        if (c.revealsNum > 0) {\r\n            if (p.revealed) {\r\n                uint256 share = 0;\r\n                for(uint i=0; i < 3; i++) {\r\n                    if (i == 0 && w[i] == msg.sender) { share = calculateShare(c, 0); }\r\n                    else if ( i == 1 && w[i] == msg.sender) { share = calculateShare(c, 1); }\r\n                    else if ( i == 2 && w[i] == msg.sender) { share = calculateShare(c, 2); }\r\n                    else { share = 0; }\r\n                }\r\n                \r\n                returnReward(share, c, p);\r\n            }\r\n        // Nobody reveals\r\n        } else {\r\n            returnReward(0, c, p);\r\n        }\r\n    }\r\n\r\n    function calculateShare(Campaign storage c, uint256 winner) internal view returns (uint256 _share) {\r\n        // Someone does not reveal. Campaign fails.\r\n\r\n        if (c.commitNum > c.revealsNum) {\r\n            _share = fines(c, 3) / c.revealsNum;\r\n            // Campaign succeeds.\r\n        } else {\r\n            _share = fines(c, winner);\r\n        }\r\n        \r\n    }\r\n\r\n    function returnReward(\r\n        uint256 _share,\r\n        Campaign storage c,\r\n        Participant storage p\r\n    ) internal {\r\n        p.reward = _share;\r\n        p.rewarded = true;\r\n        payable(msg.sender).transfer(_share);\r\n    }\r\n    \r\n    function getThisBalance() public view returns(uint256) {\r\n        return address(this).balance;\r\n    }\r\n    \r\n    function fines(Campaign storage c, uint256 winner) internal view returns (uint256) {\r\n        if(winner == 0) {\r\n            return address(this).balance >> winner+1;\r\n        } else if (winner == 1 || winner == 2) {\r\n            return address(this).balance >> 2;\r\n        }\r\n        \r\n        return (c.commitNum - c.revealsNum) * c.deposit;\r\n        \r\n    }\r\n\r\n    // If the campaign fails, the consumers can get back the bounty.\r\n    function refundBounty(uint256 _campaignID) external {\r\n        Campaign storage c = campaigns[_campaignID];\r\n        returnBounty(c);\r\n    }\r\n    \r\n    //------------------------------------------------------------------------------------------------------------------------------\r\n\r\n    modifier campaignFailed(uint32 _commitNum, uint32 _revealsNum) {\r\n        if (_commitNum == _revealsNum && _commitNum != 0) revert();\r\n        _;\r\n    }\r\n\r\n    modifier beConsumer(address _caddr) {\r\n        if (_caddr != msg.sender) revert();\r\n        _;\r\n    }\r\n\r\n    function returnBounty(Campaign storage c)\r\n        internal\r\n        bountyPhase(c.blockNum)\r\n        campaignFailed(c.commitNum, c.revealsNum)\r\n        beConsumer(c.consumers[msg.sender].consumerAddr) {\r\n        uint256 bountypot = c.consumers[msg.sender].bountyPot;\r\n        c.consumers[msg.sender].bountyPot = 0;\r\n        payable(msg.sender).transfer(bountypot);\r\n    }\r\n    \r\n    //------------------------------------------------------------------------------------------------------------------------------\r\n    \r\n     /*\r\n    struct Campaign {\r\n        uint32 blockNum; \r\n        uint96 deposit; //Founder's deposit\r\n        uint16 commitBalkline; // Start at this block\r\n        uint16 commitDeadline; // End at this block\r\n        \r\n        uint256 random; \r\n        bool settled;\r\n        uint256 bountyPot;\r\n        uint32 commitNum;\r\n        uint32 revealsNum;\r\n        \r\n        mapping (address => Consumer) consumers;\r\n        mapping (address => Participant) participants;\r\n        mapping (address => Player) players;\r\n        mapping (bytes32 => bool) commitments;\r\n    }\r\n    \r\n    Campaign[] public campaigns;\r\n    mapping(uint256 => address []) internal players;\r\n    \r\n    */\r\n    \r\n    function computeToUint(uint[4] memory bettingNumber) internal pure returns (uint256) {\r\n        uint256 temp = bettingNumber[0] * 1000 + bettingNumber[1] * 100 + bettingNumber[2] * 10 + bettingNumber[3];\r\n        return temp;\r\n    }\r\n    \r\n    function checkWinner(uint256 _campaignID) internal view returns (address[3] memory) {\r\n        \r\n        Campaign storage c = campaigns[_campaignID];\r\n        \r\n        if (c.revealsNum != c.commitNum) {revert();}\r\n        if (c.commitNum == 0) {revert();}\r\n        \r\n        address[] storage playerList = players[_campaignID];\r\n        uint256 [] memory bettingNumberList = new uint256[](players[_campaignID].length);\r\n        \r\n        for(uint i = 0; i < playerList.length; i++) {\r\n            bettingNumberList[i] = computeToUint(c.players[playerList[i]].bettingNumber);\r\n        }\r\n        \r\n        \r\n        //find 1st, 2nd, 3rd biggest winner\r\n        uint256 [3] memory numberWinner;\r\n        numberWinner[0] = 0;\r\n        numberWinner[1] = 0;\r\n        numberWinner[2] = 0;\r\n        \r\n        address [3] memory addressWinner;\r\n        \r\n        for(uint i = 0; i < playerList.length; i++) {\r\n            if (numberWinner[0] < bettingNumberList[i]) {\r\n                \r\n                if(numberWinner[0] >= numberWinner[1]) {\r\n                    \r\n                    if(numberWinner[1] >= numberWinner[2]) {\r\n                        numberWinner[2] = numberWinner[1];\r\n                        addressWinner[2] = addressWinner[1];\r\n                    } \r\n                    numberWinner[0] = numberWinner[1];\r\n                    addressWinner[0] = addressWinner[1];\r\n                }\r\n                \r\n                numberWinner[0] = bettingNumberList[i];\r\n                addressWinner[0] = playerList[i];\r\n                \r\n            } else if (numberWinner[1] < bettingNumberList[i]) {\r\n                \r\n                if(numberWinner[1] >= numberWinner[2]) {\r\n                    numberWinner[2] = numberWinner[1];\r\n                    addressWinner[2] = addressWinner[1];\r\n                }\r\n                \r\n                numberWinner[1] = bettingNumberList[i];\r\n                addressWinner[1] = playerList[i];\r\n                \r\n            } else if (numberWinner[2] < bettingNumberList[i]) {\r\n                numberWinner[2] = bettingNumberList[i];\r\n                addressWinner[2] = playerList[i];\r\n            }\r\n        }\r\n        \r\n        return addressWinner;\r\n    }\r\n    \r\n    function kill() public {\r\n        require(msg.sender == founder);\r\n        selfdestruct(founder);\r\n    }\r\n}\r\n",
  "sourcePath": "G:\\randaoCasino\\contracts\\randao-casino.sol",
  "compiler": {
    "name": "solc",
    "version": "0.8.7+commit.e28d00a7.Emscripten.clang"
  },
  "schemaVersion": "3.4.3",
  "updatedAt": "2021-08-18T20:33:58.680Z",
  "networkType": "ethereum",
  "devdoc": {
    "kind": "dev",
    "methods": {},
    "version": 1
  },
  "userdoc": {
    "kind": "user",
    "methods": {},
    "version": 1
  }
}